:1000000000650020713F0000A7BF0000453F0000D1
:10001000453F0000453F0000453F00000000000054
:10002000000000000000000000000000B5390000E2
:10003000453F00000000000025390000453F00005A
:100040002D3B00002D3B00002D3B00002D3B000010
:100050002D3B00002D3B00002D3B00002D3B000000
:100060002D3B00002D3B00002D3B00002D3B0000F0
:100070002D3B00002D3B00002D3B00002D3B0000E0
:100080002D3B00002D3B00002D3B00002D3B0000D0
:100090002D3B00002D3B00002D3B00002D3B0000C0
:1000A0002D3B00002D3B00002D3B00002D3B0000B0
:1000B0002D3B00002D3B00002D3B00002D3B0000A0
:1000C0002D3B00002D3B00002D3B00002D3B000090
:1000D0002D3B00002D3B00002D3B00002D3B000080
:1000E0002D3B00002D3B00002D3B00002D3B000070
:1000F0002D3B00002D3B00002D3B00002D3B000060
:1001000053B94AB9002908BF00281CBF4FF0FF317E
:100110004FF0FF3000F06EB9ADF1080C6DE904CE80
:1001200000F006F8DDF804E0DDE9022304B07047D2
:100130002DE9F047089D04468C46002B40F0838053
:100140008A42174647D9B2FA82F242B1C2F1200080
:1001500024FA00F09140974040EA010C94404FEAA5
:100160001748230CBCFBF8F61FFA87FE08FB16C1E4
:1001700043EA014306FB0EF1994209D9FB1806F147
:10018000FF3080F01981994240F21681023E3B44D3
:100190005B1AA4B2B3FBF8F008FB103344EA034443
:1001A00000FB0EFEA64509D93C1900F1FF3380F093
:1001B0000581A64540F2028102383C4440EA0640EF
:1001C000A4EB0E0400261DB1D4400023C5E9004372
:1001D0003146BDE8F08702B9FFDEB2FA82F2002AAA
:1001E00050D1CB1B4FEA174E1FFA87F80126B3FBFD
:1001F000FEFC210C0EFB1C3341EA034108FB0CF30F
:100200008B4207D979180CF1FF3002D28B4200F2F1
:10021000E9808446C91AA3B2B1FBFEF00EFB1011AF
:1002200043EA014408FB00F8A04507D93C1900F156
:10023000FF3302D2A04500F2D9801846A4EB08048F
:1002400040EA0C40BFE78B4209D9002D00F0B18095
:100250000026C5E9000130463146BDE8F087B3FA13
:1002600083F6002E4AD18B4202D3824200F2B8803C
:10027000841A61EB030101208C46002DA8D0C5E94A
:10028000004CA5E7C2F1200320FA03F6974001FADB
:1002900002F04FEA174ED9403043030CB1FBFEF693
:1002A0001FFA87F80EFB161143EA014306FB08F11B
:1002B000994204FA02F409D9FB1806F1FF3C80F0D8
:1002C0008D80994240F28A80023E3B445B1A81B2A3
:1002D000B3FBFEF00EFB103341EA034100FB08F3D1
:1002E0008B4207D9791800F1FF3C73D28B4271D948
:1002F00002383944CB1A40EA064678E7C6F1200CAA
:1003000003FA06F422FA0CF31C4320FA0CF701FA64
:1003100006F34FEA144E21FA0CF11F433B0CB1FBDC
:10032000FEF91FFA84F80EFB191143EA014109FB9B
:1003300008FA8A4502FA06F200FA06F308D96118AB
:1003400009F1FF3048D28A4546D9A9F10209214472
:10035000A1EB0A01BFB2B1FBFEF00EFB101147EAA0
:10036000014700FB08F8B84507D9E71900F1FF314C
:100370002ED2B8452CD90238274440EA0940A7EBD1
:100380000807A0FB02894F45C64649461AD317D035
:100390005DB1B3EB0E0267EB010707FA0CFCF2400C
:1003A0004CEA0202F740C5E9002700263146BDE8C5
:1003B000F0872E4628460BE70646E9E61846FDE696
:1003C0004345E5D2B8EB020E69EB04010138DFE7E3
:1003D0000846D2E760468DE78146B9E7664675E78D
:1003E00030464AE7ACF1020C394413E702383C448A
:1003F00024E700BF704700BF7FB53B4B3B4AC3F8C3
:1004000000263B48C3F804264921C3F80826C3F850
:100410000C26C3F81026C3F81426C3F81826C3F810
:100420001C260BF0DAFB0AF084FC324800F078F866
:1004300028B9304A304845210BF0CFFBFEE70020B9
:1004400001F0F4FE78B12D4845210BF0C6FB01A860
:1004500000F082FC2A4B1B68834210D029484521BA
:100460000BF0BBFBFEE7284849210BF0B6FB4FF42D
:100470008040002102F0A4FE24484921E5E7039AC8
:10048000234849210BF0A9FB224849210BF0A5FB89
:100490004FF4803100200CF028F920B11E4845218E
:1004A0000BF09BFBFEE769469DF8080000F044F85E
:1004B000009B039C1C44019B1D8901F09BFD661958
:1004C00000F02EFF4FF02002EFF3118382F3128829
:1004D000BFF36F8F635983F30888736898470F4899
:1004E00045210BF07AFBFEE7000001403546526ED5
:1004F00034DD00004DDD000060DD00007FDD000028
:10050000E40B0020CEDD000096DD0000AFDD000032
:10051000F1DD000020DE000045DE000078DE000096
:1005200010B5044C236813B907F0EEFC2060206876
:1005300010BD00BFE00B002008B540B1024600230B
:10054000044845210BF049FB6FF0150008BD086019
:10055000FCE700BF9BDE00002DE9F04FDFF81C92A6
:10056000DDB015461E46DDE96848DDF898B1D9F8DA
:10057000007000F0A3FE7F4B0122C3F800253CA8C9
:1005800009F00CFBCDF814903CB1B8F1000F04DD7C
:10059000424621463CA80AF024FF6B89B5F8088042
:1005A0009844EB684FF000099844C8454ED80FA90D
:1005B0003CA809F065FB6F4B0022C3F80025C3F887
:1005C00000256A9B23B120220FA918460BF01FFDBE
:1005D0000023009332464FF6FF73294609A80AF01C
:1005E000A9FB0446002844D1DFF894A1DFF88481F8
:1005F00003904FF0FF350DF11E0307AA08A909A8C3
:100600000AF0E4FB041E34DB40F0A480BDF81E9029
:10061000B9F1100F38D1BDF81C90B9F1200F40F09E
:10062000A38008994B463CAA30460BF0BAFB04461F
:10063000F8B94A463CA90FA80AF03FFC04464E4BC5
:100640001B68834215D101230393D4E7679AA8EB73
:1006500009039A4228BF1A461346924649465A460B
:1006600030460BF09EFB044638B1424B0022C3F8E3
:10067000002520465DB0BDE8F08F524659463CA8A3
:100680000AF0AFFED14490E7B9F1010F3FD1BDF8B8
:100690001C30202B68D808993CAA30460BF081FB0F
:1006A00004460028E5D19DF81C50202D0AD8DAF820
:1006B0000030DFF8D0B00493049B9C4205DB00239C
:1006C000C8F800354FF0FF341DE000F0F7FDC8F822
:1006D00000951FA809F062FADBF804205BF8081BFC
:1006E00012681FA80AF07DFE17A91FA809F0C8FA12
:1006F0000022C8F800253CA92A4617A80BF077FC71
:1007000018B9C8F80005254675E70134D4E7B9F1F2
:10071000220F7FF470AF002D19DBDAF80030AB4206
:1007200015DDBDF81C30802B1ED808993CAA304638
:100730000BF037FB044600289BD1EDB2BDF81C300E
:1007400000953CAA20210FA800F01EF807464FF0A4
:10075000FF3550E7039B53B1074B1B68BB4201D0E9
:10076000059B1F683C4684E74FF0FF3481E7012476
:100770007FE700BF00A00250E40B00200000002033
:1007800088D800008CD800002DE9F04196B01746BB
:100790001D469DF87020354B0E4653F832100191DE
:1007A00003EBC20380465B68186802AA0144302349
:1007B00001A80AF0A3FD10B14FF0FF3053E0DDE9CE
:1007C00001431C4403AA06AB214601A80AF0BEFD62
:1007D0000028F1D1049A072AEED1254905980BF09B
:1007E00006FC0028E8D1079A082AE5D12149089893
:1007F0000BF0FDFB0028DFD102AA214601A80AF078
:1008000091FD0028D8D1DDE9013213449C42D3D1B7
:10081000412AD1D13D44302303AA294602A8029798
:100820000AF06CFD0028C7D1DDE9023213449D4275
:10083000C2D32A4602A906A80AF013FB0028BBD19E
:100840002A4602A90EA80AF00CFB0028B4D1202EDB
:10085000B2D101990B78042BAED1334606AA0131EF
:10086000404600F043FD16B0BDE8F0818CD8000092
:10087000C1DE0000C9DE00002DE9F04186B0022390
:10088000DFF86C80ADF800300D466F46002617F893
:10089000010B01A902F0E0FC0446A0B901988168AF
:1008A000102302AA10390BF07CFA044601980BF0D1
:1008B00077FA44B91022414602A80BF098FB40B1E8
:1008C0002EB14FF0FF34204606B0BDE8F08101267E
:1008D000DDE701980BF028FF0423A0F108012A4668
:1008E00001980BF05EFA044601980BF059FAEAE71A
:1008F000FCDA00002DE9F041384B88B006460020B4
:100900000D461C680AF00AFA06A9C0B202F0A4FC5F
:10091000002857D129460AF001FA2C2407A9C0B2B1
:1009200004FB056402F098FC002836D04FF02C0838
:1009300008FB05F806EB0807396911F0100137D1FB
:100940004FF480730193264B00932246CDE90311A7
:10095000069B02910846FFF7FFFD0446214B56F81F
:10096000082006989A420CD13A89FB68D1438B4201
:1009700007D813448268934203D21B4B1B68A342DF
:100980001DD045B3826800210BF055FA174A18486C
:1009900045210BF022F9012411E007980BF086FAAB
:1009A000074607980BF0FCF9631EE21C93420DD139
:1009B000002DF0D0069930460AF07FFB2C460698B1
:1009C0000BF0EEF9204608B0BDE8F08113F8011FE6
:1009D000B942EBD0AAE7074AD9E700BF00000020E0
:1009E000B02C00203DB8F396E40B0020D2DE0000CE
:1009F000E4DE0000DCDE000073B50D460446002195
:100A00002846CDE900110AF017FB30B3164E2268D4
:100A1000B24203D101AA20460AF083FAE36AB34244
:100A200004D16A46012120460AF07BFADDE9003252
:100A3000934288BF0193019BAB60019A29462046EF
:100A400000F034FB094B1A68002A03DD08485721DF
:100A50000BF0C3F8002002B070BD05F10801FFF7EC
:100A60000BFFAB680193E8E73DB8F3964818002008
:100A70000CDF00002DE9F84FDFF878B01B4C1C4D5F
:100A80008A469046994600260B9B9E4201D3002041
:100A90000FE00B9B174A9F1BB7F5806F28BF4FF4E1
:100AA00080673B4606EB090150460BF07AF910B11E
:100AB0000120BDE8F88F0A993B465A467118404616
:100AC0000BF08BF90028F3D1C4F800563E44C4F86B
:100AD0000456C4F80856C4F80C56C4F81056C4F8A6
:100AE0001456C4F81856C4F81C56CDE7000001404F
:100AF0003546526E480C00202DE9F0438E4B1E689F
:100B00008E4B43620F468E4B0365002185B0044631
:100B100008460AF003F904F12001C0B202F09CFB80
:100B2000012100200AF0FAF804F14C01C0B202F0F1
:100B300093FB054620460AF055FA804668B9002224
:100B4000114620460AF035FA804600B37D4800225F
:100B500057210BF042F8012391E07B488022572176
:100B60000BF03BF80123984584F85830E7D194F80E
:100B700058308DF80730042B00F28480012B00F2EE
:100B8000888000F09F80FF2384F858309AE0204648
:100B900000F0A4F90028DED068460AF044FA69465D
:100BA00020460AF0DFFA18B1684842465721D0E7DC
:100BB00068460AF041FA80F001006A46C1B2204658
:100BC0000AF0F7F902460028C0D168460AF034FA64
:100BD000804660BB69462046FFF70EFF9DF8073050
:100BE00084F85830033B012B06D840460AF008FB36
:100BF00010B1FF2384F858309DF80730023B022BD8
:100C00000BD800200AF0EAFA38B1FF2384F85830F4
:100C10004F4845210AF0E1FFFEE794F85830FF2BDA
:100C2000F6D06A46002120460AF0C3F993E79DF802
:100C30000790B9F1010F17D1104605F001FB831E93
:100C4000022B80460DD849462046FFF753FE414B04
:100C50001B68984205D001280CBF4FF001084FF0E7
:100C6000050884F8588082E701212046FFF742FEFC
:100C7000384B1B6898420CBF9DF80730052384F859
:100C8000583074E7052B7FF47EAF00200AF0B8FAE5
:100C900013E069462046FFF7AFFE94F85830DA1E9D
:100CA000012A05460CD800200AF0AAFA05460028B9
:100CB0007FF469AF00200AF091FA054610B162E7AF
:100CC000022BF7D094F85830FF2B04D1204845214F
:100CD0000AF083FFFEE7012B06D06A46002120467A
:100CE0000AF067F90546D0B900212046FFF702FE59
:100CF0000646DFF86080D8F8003098420FD1102205
:100D0000002168460BF08EF9206A0AF010F838715D
:100D1000236AD8F800605B68BB603C600025E06C2B
:100D20000BF03EF8206A0BF03BF8002D14BF28466C
:100D3000304605B0BDE8F0830000002048100020D8
:100D4000481400207DDF00003BDF0000A9DF000029
:100D5000D3DF0000E40B002038B5064D04466022C6
:100D6000002128460BF05EF921462846FFF7C4FE15
:100D700038BD00BFE80B002073B516461C4633B3E0
:100D8000436A5D686379012B15D101BB1F4B226853
:100D90001B689A4298BF0025002009F0BFFF01A9F7
:100DA000C0B202F059FAF0B1012501980AF0F8FF3B
:100DB000284602B070BD022B09D12368012B08D947
:100DC000124A1268934202D8B1FA81F1490900250A
:100DD000E2E7FCD10029DFD00129F8D121790239DD
:100DE00018BF0121F3E729460198202332460AF073
:100DF000D8FF05460028D7D1002CD6D03568044846
:100E00002D1A18BF4FF0FF35CFE700BF04000020B8
:100E10003DB8F3962DE9F04F074685B00C460146E4
:100E2000002016460AF050F8051E51DB3846E46DE6
:100E30000AF057F85FFA84F905F1FF3809FB080852
:100E40004FF0000A4FF0010B4FF0FF349DB9BAF19B
:100E5000010F03DD204845210AF0BFFE631C06D0C8
:100E60007F2C2ADC013440F201133460B380284621
:100E700005B0BDE8F08F6B1E00930DF10F0201234A
:100E8000414638460AF08DFF031E019322DB012202
:100E90000DF10F0138460BF058FC019B40B15B454A
:100EA00001D00AF1010A009DA8EB09089B46CDE795
:100EB000B4F1FF3F08BF2C46F5E70223803C737175
:100EC000631004F001040133013433603471CEE760
:100ED0000725CCE70125CAE7DFDF0000816A426D04
:100EE0008A4238B508D0531C8B4205D0134857218D
:100EF0000AF073FE002038BD80291CD91048572104
:100F0000F6E7446A056D04EBC30405EBC3056468AA
:100F10006D68AC4202D00B485721E9E701339A4291
:100F2000EFD1914205D9436A03EBC2025368A34251
:100F3000F1D10120DFE700231C46F0E702E00000CA
:100F40003AE0000069E0000000B589B004A9022081
:100F50000BF060FC9DF81020012A41D0254B26495A
:100F6000032A18BF0B469DF8132002929DF8122009
:100F700001929DF81120214800924921204A0AF04F
:100F80002CFE06A905200BF045FC9DF81820012A2F
:100F900028D0184B1849032A18BF0B469DF81B2070
:100FA00002929DF81A2001929DF819200092134890
:100FB000144A49210AF011FE9DF81030012B13D17B
:100FC0009DF81230032B0FD19DF81830012B0BD058
:100FD0000D4849210AF001FE022009B05DF804FB2A
:100FE0000A4BC0E7094BD9E7094849210AF0F5FD4A
:100FF0000020F2E79AE00000A0E00000B2E000006C
:10100000A4E00000F3E0000003E1000095E0000030
:1010100022E1000070B54B6814461E4A03F0FF231E
:10102000934286B006460D462FD10B68012B2CD17A
:1010300004A9204605F0B4F89DF81020012A26D016
:10104000154B1649032A18BF0B469DF81320029230
:101050009DF8122001929DF8112000921048114A2B
:1010600049210AF0BAFD9DF81030032B0DD121461D
:1010700030460AF022F820460BF0C3FBA968204650
:1010800009F040FF204605F07DF806B070BD064B24
:10109000DBE700BF000100049AE00000A0E00000D0
:1010A000B2E00000F3E0000095E000002DE9F04F11
:1010B0002DED028B436A0C465E688BB0054601211C
:1010C000002333449A42084601F10101F9D8784FD0
:1010D0003860204609F0B0FFBB46C8B1E86D09F0A2
:1010E000EEFEAB6A0022013B3244904201D9013B43
:1010F000FAE7DBF800209A420AD36E4857210AF03B
:101100006CFD0123E3710BB0BDEC028BBDE8F08FE9
:1011100008A9022002F0A0F809A9052002F09CF815
:10112000099A21462846FFF775FF6379012B08D1FC
:10113000DBF80070DFF880A1DBF80030A7B90123ED
:1011400023600223DFF87081637101270593DBF8C8
:101150000030DDF820909F424DD948460AF020FE2D
:1011600009980AF01DFECEE7226801339B1A9F42C0
:101170003FD86B6ADDF82080196853F8370003EB1D
:10118000C703012A53F8083CA3EB010308EE103A09
:10119000A0EB010912D1E268099B022A0AD041465C
:1011A0002846039309F089FF22464146284609F064
:1011B000BAFF039B1946284609F07FFF324649468D
:1011C000404609F078FF18EE103A42464146CDE914
:1011D00000962846FFF74EFC2146284609F039FFC5
:1011E00023680133236020B1DAF800300133CAF8F4
:1011F0000030013FA0E723689F4256D3696A286DFB
:1012000051F837300493FA00083A0B6850F802C0DE
:10121000039303682079DDF824A00128ACEB0303D5
:1012200041D189580793039B3246C91A4846069113
:1012300009F041FF0699079B00914A4651460196E5
:1012400028460693FFF716FC2146284609F001FFC1
:10125000059B2371069B20B1D8F800200132C8F805
:101260000020194632465046069309F024FF069B9B
:101270000093DDE9032349469B1A0196524628460E
:10128000FFF7F8FB2146284609F0E3FE2368013307
:1012900023604FF00103237138B1D8F800300133D7
:1012A000C8F8003001E00228DBD001374FE700BF6B
:1012B0000400002039E100004818002070B5094DF5
:1012C0002B7853B9084C0126C4F8006508F008FDD6
:1012D00028B92E70C4F8000570BD0020FCE74FF05F
:1012E000FF30F9E7B02D002000A0025070B50B4E82
:1012F000AEB01D46CDE902210446FFF7DFFF012312
:10130000C6F80035DDE902212346009505A80CF05A
:10131000B9F80023C6F800352EB070BD00A0025009
:10132000174B184901221A604FF0FF33C1F84833B8
:10133000C1F8083301F5C04104310A60C1F84433F3
:10134000C1F8043301F598310A600F4AC2F84833F6
:10135000C2F80833A2F508320021C2F80015C2F81D
:10136000083302F51832C2F80015C2F80833A2F5A6
:101370001042C2F808354FF08042C2F80833704777
:1013800004B0004000B00040004002400B68013350
:101390000B60014B1B6818470800002007B50B467F
:1013A000002102460191034801A900F0EDF803B0C5
:1013B0005DF804FB8D1300002DE9F74FB0F818908D
:1013C00019F00808044693460ED001290CBF49F0D5
:1013D000100949F02009A0F818908BF31188BFF389
:1013E0006F8F03B0BDE8F08FDFF898A109F007090F
:1013F000022907D120460AF04BF80028EDD0012839
:10140000238B4DD16769218B002F15DA256821F0D8
:101410000701C4E9008841F0010121830026218BE6
:1014200001F007024A4502D0A368002B59D10DB93B
:10143000002E71D0002355E001F007035A1F012A46
:101440001FD821F00701062B256889B2C4E900885E
:101450000CD1002D2B4638BF00232BB1628B1B68AB
:1014600001326283002BF8D141F002012183204632
:101470000AF00EF80028D1D0238B43F020032383F9
:10148000CCE7042B0AD121F0070189B22183204641
:1014900009F0FEFF10B141F0200121830025BDE7D6
:1014A000032809D1226923F00703166843F00603D5
:1014B000238300252F46B2E7042806D1226923F0B2
:1014C0000703566843F00403F2E7052806D12269B2
:1014D00023F00703966843F00503E9E700252E464D
:1014E000E8E7012341F0080121838BF31188BFF362
:1014F0006F8F03BB002D34D116B151462046B04743
:101500004FF02003EFF3118B83F31288BFF36F8F3B
:10151000238B23F008032383238BDA062AD523F0B9
:10152000100323830121B4F8189009F0070900295A
:101530007FF45EAF51E7A1680029DBD00B68D1F8DA
:1015400004B00192002B38BF0023994620463B4649
:10155000D847019AB9F1000FCCD0D9F800304946EC
:10156000EDE729463B46204601922D6809F0ACFF85
:10157000019ABFE713F020011EBF23F0200323834D
:101580000221D0E7F5B400002DE9F04F8FB01F46DF
:10159000531E00908B4601934FF0000A019B587830
:1015A000252803F1010422D14FF0000C18464FF01A
:1015B000FF3602306146CDF808C034464FF00A0EBF
:1015C00002780190392A00F1010057D81F2A18D853
:1015D000002A00F0FE81009B594625209847019B78
:1015E00059461878009B98470AF1020AD6E7002866
:1015F00000F0EF81009B594698470AF1010A0194D7
:10160000CCE7A2F12003192BE5D801A555F823F06A
:1016100079160000D7150000D715000079160000D4
:10162000D7150000F9160000D7150000D7150000E7
:10163000D7150000D71500003B17000079160000F1
:10164000D71500004F17000007170000D71500003E
:10165000131700002F1700002F1700002F1700008E
:101660002F1700002F1700002F1700002F17000062
:101670002F1700002F1700009446A1E7582A00F00A
:101680004081A2F16303DDB2172DA4D8172BA2D895
:1016900001A555F823F000BF5D1900007517000083
:1016A000D7150000D7150000D7150000551700000A
:1016B00075170000D7150000D7150000551700005A
:1016C000D7150000D7150000D7150000AD18000091
:1016D000D7150000D71500003F190000D7150000EE
:1016E00075170000D7150000D7150000AD180000D1
:1016F000D715000055170000009B59462520984734
:101700000AF1010A4AE7029B03F0FE030293002656
:1017100056E7002C0BDA002E0BDA029B002B00F0B0
:10172000548124EAE4740EFB0424303C48E7002E84
:10173000F7DB0EFB0626303E42E7002E57F8043B4F
:1017400001DB1E463CE71C1EBFF63AAF6442022393
:10175000029335E7682A03D1682906D148212FE78B
:101760006C2A02D16C2900F0328100297FF433AF5A
:10177000114625E77A290FD13B68752A07F1040540
:10178000984640F088804FF00009BCF1200F40F0EF
:101790008580924F013C15E06C29EDD04C29EBD1AE
:1017A000FD1D25F00705752AF5E80289EDD0B8F191
:1017B000000F79F10003E8DAD8F10008884F69EBEF
:1017C0004909013C0DAB059300230393039B04934C
:1017D000013B0393404649460A220023FEF790FC52
:1017E000059B303203F80129404605930A22002365
:1017F0004946CDE90689FEF783FCDDE90623002B87
:1018000008BF0A2A80468946E0D2049B0EAAC3F18B
:10181000010902EB0308002EA8F1040804DA029B78
:1018200013F0010F18BF2646A6EB0903002B039304
:10183000029BD4BFA4EB0904A41B9A0740F1AF801C
:10184000AAEB070606EB070A17F8010B002840F081
:10185000A880039E013E40F1A880039B5A1E0132DE
:10186000ACBF1F4600274E46013E40F1A38009F160
:10187000FF320132ACBF4B46002303EB070926467B
:10188000013E40F19D80631E0133B8BF0024A14496
:10189000CA442F4682E64FEAE37988E7BCF12B0F72
:1018A0000ABF504F504F04F1FF348BE7702A28D104
:1018B0003D4655F8040B00285AD04C4F0021023CFD
:1018C00002F06002A2F139090DF1340E4FF0000868
:1018D00000F00F03092B88BF4B44303300290EF86A
:1018E000013908BF10284FEA101308F1FF3C43EA02
:1018F00001734FEA11121ED20EABC8F101099844D0
:1019000089E76C2904D13D46002155F8040B06E017
:101910004C29F8D1FD1D25F00705F5E80201BCF1C1
:10192000230F06D1314B324F12F0200F18BF1F4644
:10193000C5E72D4FC4E7E04618461146C8E73D46C7
:1019400055F8048B40460AF03FFB002E814602DB2F
:10195000B042A8BFB146244F002665E73D464FF090
:10196000010955F8043B8DF820300DF12008F2E70D
:10197000DFF880804FF00509EDE7009B59462020F5
:101980009847013EF9D5621E531CACBF2146002189
:10199000C4F10004B8BF00248A44144450E726462A
:1019A000EFE7009B594698474CE7009B594630208B
:1019B00098474FE718F8010B009B5946984753E7A3
:1019C000009B5946202098475AE70123C0E64C2146
:1019D000F6E550460FB0BDE8F08F00BF0AEE0000FC
:1019E000C3E10000C5E1000043F40000C7E10000CE
:1019F000CAE10000CDE1000008B54FF02002EFF38E
:101A0000118382F31288BFF36F8F02F011FC034839
:101A100009F031FD01F072FEFCE700BFD3E10000E8
:101A20000C4BF0B45F6A0C4E0C4BB34203D36FF017
:101A30008500F0BC70475D68BD4209D31C693CB1AC
:101A400095F802C00579AC4502D12346F0BC184791
:101A50002433EAE74C18002034070020C806002091
:101A6000F7B5134C134E144F0546B44203D36FF031
:101A7000850003B0F0BD60687B6A984215D3A36906
:101A80009BB190F802E095F804C0E64504D12846E1
:101A900003B0BDE8F04018474079012805D1284639
:101AA000CDE900129847DDE900122434DDE700BFDC
:101AB000C8060020340700204C1800202DE9F04112
:101AC0000A4C0B4E05460F469046B44202D36FF0C7
:101AD000850009E063690BB92434F6E742463946CC
:101AE000284698470028F7D1BDE8F081C8060020B5
:101AF0003407002007B583788DF8003042790379E8
:101B000043EA0223ADF80230C378684603F00303CA
:101B10008DF8043003F058F810F1780F9DF800208C
:101B200015D1134857210AF058F89DF8000003F02A
:101B3000DDF810F1780F14D19DF800200D485721E1
:101B40000AF04BF80C4B012083F8B90006E000289E
:101B5000EBD00A4845210AF040F8002003B05DF8B8
:101B600004FB0028EED09DF8002005484521F2E74F
:101B7000FCE100004DE200004C18002024E20000CF
:101B800072E200000248082200210AF04BBA00BFAE
:101B90000719002070B50B4B0B4CA34201D300205A
:101BA00070BD196A1E7F00220439D5B2AE4201D839
:101BB0002433F2E7013211F832508542F5D1012089
:101BC000EEE700BFC80600203407002073B5C4B29A
:101BD00063060D468DF8074007D02046FFF7DAFF71
:101BE000B8B1144B93F8BA0098B1124E224649216D
:101BF0008DB1114809F0F1FF9DF8070003F00CF8D2
:101C0000F3690BB9012004E008200DF107019847A2
:101C1000284602B070BD094809F0DFFF9DF80700B3
:101C200003F028F8F369002BECD00DF1070109202F
:101C30009847E7E74C18002098E20000B0E2000067
:101C400004282DE9F047DFF8888004460E460CD1C1
:101C5000FFF798FF1C4B93F8B92099463AB100F072
:101C600021FE042C03D1194D14E00528F2D0174DA4
:101C700045451ED3144B1B6A1BB331462046BDE8B5
:101C8000F0471847D5F820A000272A7FFBB29A42D8
:101C900003D824354545F5D307E00AEBC3030137E4
:101CA000187903F04DF80028EFDA002389F8B930ED
:101CB000DDE7EB681BB132462146284698472435BC
:101CC000D6E7BDE8F08700BF4C180020C80600200A
:101CD000340700202DE9F74FAC4EB36905460F4697
:101CE000904603BB297801F01F00012800F0A18075
:101CF000022800F0188100BB0906D8F800206B7894
:101D000038D5062B14D0082B2ED0B3B9012153702F
:101D1000117096F8C310002918BF022343F0010385
:101D20001370022324E098470028DBD1002006E04E
:101D30006B881A0A111F012904D86FF0150003B02F
:101D4000BDE8F08F072AF8D8D9B2736A1C78002C46
:101D5000F3D05D78954203D1814200F01F810130BC
:101D60002344F3E71B781FE196F8BA301370012380
:101D70003B60E4E7013B082BDFD801A252F823F0D7
:101D8000191E00003B1D0000271E00003B1D000027
:101D9000A51D00003B1D00003B1D00003B1D000079
:101DA000B11D0000A87802F0DBFE0028BED0C4E719
:101DB0006C8844B14FF0FF08776A0020C1463C7838
:101DC0006CB90028B9D0FFF7DDFE6B8886F8BA3011
:101DD000F369002BAAD06E4903209847A6E77B78C9
:101DE000042B0CD0052B0DD0022B05D197F80580C4
:101DF0006A88424508BF01203B781F44DFE797F817
:101E00000390F9E76B884345F6D1B9F1000FF3D1A0
:101E10003846FFF76FFEEFE76B88012B8DD100206E
:101E200086F8C3008BE76B88012B86D186F8C33018
:101E30007CE796F8BA30002B3FF47FAF746AB5F8B0
:101E400004C0287923461A78002A3FF476AF5978DF
:101E5000022904D193F804E0864500F2A7801344D8
:101E6000F1E710705070396069E70C44ACE00B2862
:101E70007FF463AF00224FF0FF09DFF818A1DFF80D
:101E800018B14F46904606E06378042B11D0052B1D
:101E900022D023781C442378002BF5D1F36923B199
:101EA0004146072001929847019A002A7FF43EAFED
:101EB00043E794F80290A988E77889454B46E8D132
:101EC00068888742B9B2E4D1072B2AD83344A046A8
:101ED00083F8BB100122DCE7AB884B45D9D1AB7846
:101EE000BB4219D0A2780192104600F0BDFC019AC5
:101EF000104602F025FF10F1780F019A04D1572106
:101F0000584609F06AFEE5E70028E3D0452150462F
:101F100009F063FE0022BCE72046FFF7EBFD024616
:101F2000B7E7A046F6E70A066B7819D5002B7FF4D1
:101F300004AF2C7963060AD02046FFF72BFE002859
:101F40003FF4FBAE96F8BA30002B3FF4F6AED8F86B
:101F500000502046294602F0ADFE00206870E0E601
:101F6000012B08D0032B7FF4E8AE6B88002B7FF4A5
:101F7000E4AE012103E0698800297FF4DEAEA88881
:101F8000FFF724FE00287FF4D1AED6E64C180020DF
:101F900006190020F0E20000CAE20000022AC8F898
:101FA00000307FF4DFAE5B883B60BFE695F9003020
:101FB000D8F800206878002BBFF659AF00283FF40E
:101FC00050AF0A287FF4B9AE217800293FF4B5AEAE
:101FD0006378042B7FF449AFA3789C457FF445AF29
:101FE000072B96BFF618002396F8BB301370012319
:101FF000DAE700BF10B5064C94F8B80030B102F033
:1020000063FD0028A4BF002084F8B80010BD00BF05
:102010004C1800202DE9F047DFF838A005460F46A0
:102020009046994604264B4642463946284602F0D9
:10203000ADFE10F10B0F044608D12A465721504639
:1020400009F0CBFD06F082FE013EECD12046BDE852
:10205000F08700BF17E3000013B5124C237DC3B90E
:10206000E268A168019201AB8020FFF7D3FF0199DC
:10207000A268E3680A445B1AA260E3603BB9236983
:10208000E2889A4203DD9B0601D10123237502B049
:1020900010BD00231A4619468020237502F076FEF3
:1020A000F5E700BF4C18002030B585B000230C4682
:1020B0000193054600287AD1002946D108220B4613
:1020C0000DEB020109F0D7FF002804DA802002F0AE
:1020D000A3FD05B030BD3B4A0299116003995160E0
:1020E00002F1380191609DF90810BDF80E301475A9
:1020F0000029C2E9034415460EDB802B08D932487B
:10210000452109F06AFD802002F086FD2046DEE7C9
:1021100013B1C2E90333DCE72B78C3F341130A336D
:1021200055F82330002BD1D0284A02F10801A2F142
:10213000080098470028C9DBEA882B699A42D4BF77
:10214000EA60EB60FFF788FFC3E71E4CD4E9021298
:10215000002A01AB05DC024609F08DFF0028B8DA41
:10216000B4E709F088FF002804DA802002F054FD6B
:102170002846ACE70199A268E3680A445B1AA260AA
:10218000E360002BA5D104F13803A3602378C3F3E7
:1021900041130A3354F82330002B97D004F108027E
:1021A00004F11001204698470028CBDA8EE78028FA
:1021B0008FD1044BDA68002AC4D11B7D002BC1D11A
:1021C00087E700BF4C18002043E3000054180020AC
:1021D000054B064A9A62064ADA62064A1A63064ABA
:1021E00058629A61002070474C180020D51C0000EE
:1021F000211A0000BD1A0000611A0000094B10B539
:1022000093F8B8405CB900F0C1F930B906484521EF
:1022100009F0E3FC4FF0FF3010BDFFF7D9FF0020BD
:10222000FAE700BF4C18002061E300002DE9F341FC
:102230000446344D34484FF0FF324FF0FF3306F080
:10224000BBF895F8B860002E3ED130482C62E861AA
:1022500002F0D2FE02F0FAFB041E36DB00F04AFB6D
:10226000041E32DB40236846ADF802308DF804606E
:102270008DF8006002F0A8FC041E26DB802768466B
:102280008DF8007002F0A0FC041E1EDB20493046D1
:1022900002F09EFE041E18DB1D49384602F098FE2F
:1022A000041E12DB1B4CDFF87080444514D3002061
:1022B00002F01CFD041E08DB802002F017FD041E46
:1022C00003DB012385F8B83000240F4806F0F2F84C
:1022D000204602B0BDE8F081276A0026227FF3B2D3
:1022E0009A4201D82434E0E707EBC30257F83310D1
:1022F000107902F06DFE01360028EFD04FF0FF3468
:10230000E3E700BF4C1800201C050020411C000022
:10231000A9200000C80600203407002030B51F4B5C
:102320008BB005AA03F1100518685968144603C458
:102330000833AB422246F7D11B78237010220021CC
:1023400001A809F06FFE12220021154809F06AFE6B
:10235000102101A809F084FF00281BDD083801AB1B
:102360000028A8BF1B180E4A1846002110F8013B90
:102370000AAC04EB131403F00F0314F8144C14709C
:102380000AAC2344013113F8143C5370082902F1BC
:102390000202EBD102480BB030BD00BF96E3000053
:1023A000B12D00202DE9F04F002685B004464FF0F6
:1023B000011AB0463746B14623783BB96A4AA01C99
:1023C000904200F0C680FFF7EDFF2DE06378052B0B
:1023D00005D8DFE803F07E04037E0721A1462378B9
:1023E0001C44E9E7E378002BF9D1A3788BB108F11D
:1023F00001085FFA88F8F2E77A68944200F0AB804F
:1024000024379F42F8D359482246452109F0E5FB7D
:1024100008E0574F574BF4E7002F56D15648452157
:1024200009F0DBFB4FF0FF3005B0BDE8F08F3B6AF1
:10243000A07803EBCB031A79904207D00BF1010B84
:102440003B7F9B45F3D34D484521E9E70125E078E3
:1024500094F805C000F003008DF80C00207940EAE4
:102460000C20ADF80A0094F902000028EAB223DA41
:1024700005F1100001FA00F010EA0A0F21D162F014
:102480007F0202A801938DF8082002F07BFB019BDC
:102490000121B0B99DF80820A27012F0800F1A71C6
:1024A00018BF10350B4615BFAB4003FA05F54AEAD5
:1024B000030A4AEA050A92E701FA05F010EA0A0F50
:1024C000DFD00135102DC2D1B8E74FF0000B01214C
:1024D000B6E7032E23D1FFF721FF834660B109F051
:1024E00073FD054640B1264809F06EFD854210D0C7
:1024F0002448452109F071FB23786FF00201E218AE
:10250000091B04EB53030020D14210D50136F6B26B
:1025100065E72A465946A01C09F079FDECE7002E34
:10252000EAD1B9F1000F09D11748452178E702F83F
:10253000010C13F8015902F8025DE5E7A4EB090369
:1025400089F80230C3F3072389F8033089F804803F
:10255000DCE7184668E7BB68002B3FF448AF41460C
:102560002046984743E700BFC506002081E40000ED
:10257000C806002034070020A7E30000EDE30000B8
:1025800096E300000FE400005FE4000008B5064891
:10259000FFF708FF28B10548452109F01EFB002080
:1025A00008BD0148FCE700BF74050020A6E4000058
:1025B00010B5094A002311461478844205D15468A5
:1025C0001CB1482000FB031010BD0133042B02F1A5
:1025D0004802F1D10020F7E7101900202DE9F3415E
:1025E00050F8303C10F8345C1033044610D10369C5
:1025F00050F8282C990742D502BB13F0040304D1EC
:102600001A4619462846FFF705FD002344F8303CDA
:1026100054F8303C10330ED054F8206C5EB154F8AE
:10262000247C54F81C8C0AF04BFB002853D0314812
:1026300021460AF000FC02B0BDE8F08150F82C1CE5
:1026400001AB2846FFF7E6FC024638B12B462A4884
:10265000452109F0C2FA6FF01503D7E7019A54F843
:102660002C3C134444F82C3C54F8283C9B1A44F866
:10267000283C54F8243C134444F8243CC8E750F860
:102680002C1C01AB284602F005FC02460028DDD1D7
:10269000019E54F82C3C334444F82C3C54F8283C1C
:1026A0009B1B44F8283C54F8243C334444F8243C15
:1026B000002EAAD0284602F0A5FCB6FBF0F303FBDF
:1026C00010600028A1D154F8283C002B9DD028464A
:1026D00002F034FC9CE744F8200CA4F1180005F04B
:1026E00063FF54F8303C8C33A5D042463946284627
:1026F000B047A0E770070020D9E400004B1E012B73
:1027000073B506460D4613D8FFF752FF044688B945
:10271000012D0DD101AB01220DF10301304602F074
:10272000B9FB019B002BF5D10A48452109F055FA68
:1027300002B070BD0AF0C4FA04F1340108B1012DF1
:1027400003D10846FFF74AFFF2E703480AF073FB9C
:10275000EEE700BFFBE40000700700202DE9F74F13
:10276000044601911746984609F0BFFA00286ED139
:102770004FF02003EFF3118B83F31288BFF36F8FB9
:10278000DFF8E09006464FF0480A0AFB06F5002203
:102790000023484605F02EFFC8B92E4E06EB050A69
:1027A000DAF8043013F1100F1DD12B4801932246A3
:1027B000452109F012FA484605F0F6FE019B8BF31D
:1027C0001188BFF36F8F184603B0BDE8F08F013654
:1027D000042E09F14809D8D12048452109F0FDF916
:1027E0006FF00B03EBE7019BCAF81000CAE9023750
:1027F0000C9BCAF814300D9BCAF818306FF00F0309
:102800007455CAF84480CAF80430204602F0FAFB36
:1028100068B1204602F0F6FBB7FBF0F202FB107045
:1028200028B1DAF8443043F00403CAF8443018F011
:10283000020F07D005F13401094831440AF0FBFAD0
:102840000023BCE7204602F079FB0346B7E76FF0B0
:102850000F03B8E7101900201AE5000048E5000052
:10286000700700202C19002010B54FF02003EFF363
:10287000118483F31288BFF36F8FFFF799FE50B175
:102880004368103307D16FF08B03436000F13401CC
:1028900003480AF0D0FA84F31188BFF36F8F10BD9C
:1028A000700700202DE9F041104CDFF8448000252E
:1028B0006FF08B074FF02003EFF3118683F312883C
:1028C000BFF36F8F6368103305D104F134014046C4
:1028D00067600AF0B0FA86F31188BFF36F8F013595
:1028E000042D04F14804E5D1BDE8F0811019002061
:1028F0007007002070B50A4C0A4E0025314620466C
:102900000AF090FA0122A4F11800114601350AF0EC
:1029100072FA042D04F14804F0D1002070BD00BF0C
:1029200044190020DD2500000169012381F82B30C6
:102930000B6833B191F829301BB1024808310AF015
:102940007ABA7047700700200169012381F82A30A4
:102950000B6833B191F828301BB1024808310AF0F6
:102960006ABA7047700700200B4A03460021A0F89E
:102970007E1001851068586790889279A3F87800D6
:1029800083F87A2083F87C1083F87B10402203F1CF
:102990002C0009F047BB00BF70D80000F7B50D1E32
:1029A0000646144602F12C0718DDE06E2A46394629
:1029B00009F08CF8854204D92A1A45210D4809F0FE
:1029C0000CF9012384F8293023683BB194F82B30AB
:1029D00023B1094804F108010AF02DFA074B0093CE
:1029E00001940123402239463046FFF7B7FE03B079
:1029F000F0BD00BF75E50000700700209D290000B4
:102A000037B504698DF8071094F87E3013B194F847
:102A10007F302BB11548492109F0DFF803B030BDF4
:102A2000206F84F8283001220DF1070109F04EF8DB
:102A30000546A0B90E48492109F0CFF8206F0122C0
:102A4000294609F0A9F810B90A484521E4E7206FA2
:102A500001220DF1070109F039F80028F4D004F142
:102A6000180105480AF0E7F9D8E700BF9BE5000028
:102A7000C0E50000E4E5000070070020012382F8B3
:102A80002830136810B514463BB192F82A3023B1B0
:102A9000084802F108010AF0CEF9206F08F0D0FFD3
:102AA00030B904F118010348BDE810400AF0C3B979
:102AB00010BD00BF700700207FB5836E5B681B6A86
:102AC0001E7D0546304609F010F9D0B9A86D4FF4C7
:102AD000806203A909F019F8044690B18306A5F1B4
:102AE000180308BF00F1FF340193074B03990093CB
:102AF000224602233046FFF731FEA86D214609F039
:102B00002FF804B070BD00BF7D2A000070B50446E8
:102B10000E4601791548154609F0BCF838B9144835
:102B2000A288572109F059F86FF0120070BD94F98E
:102B300000206378002A11DB202B04D0222B09D03F
:102B40006FF08500F2E7296807220C3809F05FFA78
:102B50000020EBE7638800F8053CF9E7212BEFD173
:102B60000C38072328603360F2E700BF301A0020DA
:102B700000E6000007B501460190094809F09BF8FE
:102B8000019A30B90748572103B05DF804EB09F00A
:102B900024B8012300F8033C03B05DF804FB00BF38
:102BA000301A00202CE6000070B5056995F87E30DB
:102BB000164613B195F87F3033B10D483246572190
:102BC00009F00BF8002070BD286F85F8283008F058
:102BD0007DFF8642044604D9321A5721054808F081
:102BE000FCFF054805F118010AF025F92046EAE73F
:102BF00057E6000075E5000070070020F7B50E46A7
:102C000001900146344809F036F8019A044630B97B
:102C10003248572103B0BDE8F04008F0DEBF05465A
:102C2000711E55F880395F68052938D8DFE801F052
:102C30002A37032630394921294808F0CEFF14F8F5
:102C4000021C39B93B6A2A46187BFFF7A7FE01230D
:102C500004F8023C14F8583C0BBB012304F8583C20
:102C600054F8803CDBB114F8563CC3B11D48A4F1C4
:102C7000780103B0BDE8F0400AF0DDB81A484921F8
:102C800008F0ABFF284603B0BDE8F040FFF76CBE8C
:102C90001648492108F0A1FF012304F8013C03B0C4
:102CA000F0BD1348492108F098FF14F8013C002BAF
:102CB000F5D049210F4808F090FF14F8023C00219C
:102CC00004F8011C002BEAD03B6A187B2A4603B0AB
:102CD000BDE8F040FFF762BE301A00208EE600002B
:102CE000B4E6000070070020CBE60000E4E6000038
:102CF000FAE600000EE7000010B504690023C4F8EE
:102D000084300C4BC4F88000596804F1840269B91E
:102D1000C3E9002204F1080007490AF083F804F12E
:102D2000180006490AF07EF8002010BD0A605A60BB
:102D3000F0E700BF301A002015BD0000B92A0000DE
:102D4000044B93F838220020012A9CBF83F83802F4
:102D500001207047E4000020044B93F83822012A38
:102D600004BF002283F83822704700BFE40000202F
:102D7000014B9970704700BFD105002037B590F91D
:102D800000200378002A04460EDB03F01F03012B0A
:102D90000AD143780B2B1AD1438843B1012B19D0A8
:102DA0001048572108F019FF6FF0850017E00E4B0F
:102DB00002220D4D1A70287801A900F04DFA60B971
:102DC000019883686B6008F0EBFF6388EB606FF03D
:102DD000150004E0044B0522EBE76FF0040003B09C
:102DE00030BD00BF36E70000E400002010B5094CFC
:102DF000002304F11000A360A4F83A3208F038FF71
:102E000038B10548452108F0E8FE40F60A63A4F809
:102E1000383210BDE400002059E7000038B51D4BE2
:102E200093F88020022A01D0052A2DD1B3F88250D0
:102E3000194C1849B5FA85F35B092A4604F11000CC
:102E400008F0D8FE40B11548452108F0C6FE40F212
:102E50000A33A4F8383238BD95B9062384F83832DD
:102E6000FFF7C4FF284609F0E6F818B140F20A332C
:102E7000A4F838320A48BDE83840002106F002BB09
:102E8000052384F83832E6E7BDE838400548452197
:102E900008F0A3BE2C2C0020E400002073E7000003
:102EA0004C1A00208AE7000037B50F490F4809F097
:102EB000B9FF0F480F4D0AF0D4FA0F490F4800220E
:102EC0000AF052F9287801A900F0C6F9044638B989
:102ED000019883686B6008F063FF204603B030BD43
:102EE0006FF00404F9E700BF1D2E00005C1A0020FB
:102EF0004C1A0020E4000020592D00003807002063
:102F0000012908B516D10C480AF03AF90B4B93F891
:102F10003822012A0ED1022283F83822084B0948B0
:102F20001860FFF755F928B1BDE80840064845216B
:102F300008F053BE08BD00BF38070020E4000020A1
:102F4000EC06002029060020A4E700002DE9FF413F
:102F5000154690F900204378002A0746884680F2FB
:102F60009680032B1AD0052B39D0022B52D1FFF7B4
:102F7000E7FE00284ED1884E96F83822022A3446C1
:102F800036D0092A36D08548452108F026FE40F67D
:102F90000A63A6F83832FFF729FF3BE07E4B93F82F
:102FA000382293F83912062A04BF022283F8382205
:102FB0002A681170B3F83C2229684A70120A8A7094
:102FC0002A680020D0702A6893F8383213712B6871
:102FD00058710623C8F8003004B0BDE8F0816E4A8D
:102FE0002B6892F838221A7001230B600020F3E757
:102FF000FFF7FCFEF988B4F83A327A8809B19A42B0
:103000000BD000916648452108F0E7FD40F60A63C1
:10301000A4F838326FF01500DEE7D4E90163F61A40
:103020008E4228BF0E46802E08D8AEB1207803A964
:1030300000F012F920B140F20A23E9E78026F5E713
:103040002A68A1680398334608F0ABFE054603984A
:1030500008F0A6FE002DEED1B4F83A22C8F80060C0
:10306000A3680132A4F83A22626833449342A36011
:1030700009D1FB889E4206D200200223C8F8000036
:1030800084F83832A8E7092384F83832AEE7062BF3
:10309000C0D801A252F823F043310000D53000001F
:1030A0001530000015300000CB3000001530000056
:1030B000B5300000FFF744FE0028ABD1FFF796FEC5
:1030C000354B0222A3F8382290E7FFF739FE00289B
:1030D000F6D09FE7FFF734FE00289BD12E4C94F8E2
:1030E0003862022E0BD0052E1AD02E4832464521CA
:1030F00008F073FD40F60A63A4F838324BE7FFF797
:1031000075FE29480AF0B2F92378052B08D040F261
:103110000A332648A4F83832452108F05EFD65E7F9
:103120002348042384F8383280F88060FA882968BC
:10313000A0F8822008F06BFF1E491F4809F07BFEB3
:1031400054E7154B93F838221AB1002283F838223D
:1031500060E7012283F838224188B1F57A7F28BFE1
:103160004FF47A714FF4004040F2E7340025E1FB60
:1031700000454FF47A72002320462946FCF7C0FF31
:1031800002460B464FF0FF304FF0FF31CDE9000112
:103190000A4806F0BBF829E7E400002005E8000033
:1031A000D7E700004AE800004C1A002024E800009D
:1031B0002C2C00205C1A002070070020380700200B
:1031C00070B509F0A8FF144E04460D4609F09DFFA6
:1031D000A94208BFA04200D370BD96F83832043B24
:1031E000012B05D9002140F2676005F03DFEEDE7B7
:1031F0000A4B0B48002201210AF016F90121084868
:103200004FF0FF324FF0FF3306F0E0F8BDE87040BA
:103210000448492108F0E1BCE40000204C1A0020D9
:10322000381A002069E8000013B50024074808494F
:1032300000944FF0FF334FF4806205F0F3FA054934
:10324000024809F043FD204602B010BD700700207F
:103250000034002088E800000C4B1B6870B573B187
:103260000B4A15680022AA4202DB6FF0010070BD14
:103270001C4613F8106B864204D00132F3E76FF05E
:103280000C00F4E70C600020F1E700BF24030020ED
:1032900054D9000070B588B005460C46C0B26946E6
:1032A0001646FFF7D9FF00281FDB009BEBB15A68D9
:1032B00002929A682168D8680195CDE90326002218
:1032C000CDE90612059204F01FFE0546009808F0AD
:1032D00067FD6DB12846084901AA09F045F807982D
:1032E00008B9059B236008B070BD6FF01500FAE7C0
:1032F0006FF01200F7E700BFBFBE000042680B6826
:10330000934210B50C4606D90548452108F065FCE6
:103310000020606010BD4B6813444B600120F9E74A
:1033200091E800002DE9F041054686B0C06803AA87
:1033300009F016F8044640B102461648452108F047
:103340004CFC204606B0BDE8F081DDF80C802B6A0D
:103350004345F6D0EE68049AB768FB6853B9BB687A
:10336000414630469847FB6804467BB954B9039BF5
:103370002B62E6E70146304601929847019A0446DF
:103380000028ECD0044822464521D8E701213046E8
:103390009847EBE7B6E80000DCE800002DE9F341D0
:1033A0008468054674B1D0E90436013C1E44A11975
:1033B000FFF7B8FF041E09DA3A4833462246452192
:1033C00008F00BFC204602B0BDE8F081E86808F088
:1033D00094FDAA68B2FBF0F400FB14245CB1041B5A
:1033E000E86883681B6998472F68AB6801792246B3
:1033F000F81808F017FEAB68EF682A682344D7F87E
:103400000880D8F80C409CB9D8F8044031463846BA
:10341000A047D8F80C300446CBB99CB9EB69002B17
:103420002FD12B69AA6813442B610023AB60C9E735
:1034300000213846CDE90023A047DDE900230446FA
:103440000028E1D01848334622464521B8E701213B
:1034500038469847E1E7535CDB4353540131AB688E
:103460002A688B42F7D8E86881680F683146B84708
:10347000074640B1024645210C4808F0AEFB3C46E9
:10348000A0E72146EBE73246EB69A9682868984730
:1034900006460028C5D002464521054808F09DFB98
:1034A00034468FE7FDE8000030E9000059E90000EC
:1034B00074E900002DE9F7430D46DDE90A869146DF
:1034C0001F46044620B96FF00D0003B0BDE8F0833D
:1034D0000029F8D0002AF6D0009300230193084673
:1034E00008F00BFDB7FBF0F303FB107020B1184898
:1034F000452108F072FBE6E716496A46284608F0BF
:1035000033FF019B002BDED008EB0602934202D270
:1035100011484521EDE7284608F0EFFCB8FBF0F331
:1035200003FB10800028F3D1C4E90097E560206117
:10353000A060C4F8148016B9019EA6EB08060C9B87
:10354000E3614FF0FF33A66123620020BDE700BFB7
:103550008DE90000FD320000C9E90000014806F0D5
:1035600041B800BF58D9000008B5D0B14368042B5A
:1035700011D100220368BFF35B8F53E8001F0129BC
:1035800003D143E800200028F7D1BFF35B8F074841
:1035900008BF104608BD3BB1006804F08BFF002057
:1035A000F8E76FF4E040F5E70148F3E7E98FFFFF44
:1035B000EA8FFFFF10B5044618B90D4B0D485B6844
:1035C0009847616808290DD031F004030AD011F042
:1035D000020108D00848214609F049FB0023236076
:1035E0000023636010BD2068142208F01BFDF7E77C
:1035F00034040020EFE900006C1A002010B50446E6
:1036000018B9164B16485B6898476368042B23D09B
:10361000082B21D0CBB92368BBB912484FF0FF3239
:103620004FF0FF33214604F0DBFD08B923681BB9D6
:103630000A4B0D485B68984720681422002108F067
:10364000F1FC636843F002036360206809F051FBFA
:10365000636843F00103636010BD00BF34040020C1
:10366000EFE900006C1A002015EA000008B508B365
:103670004368042B10D101220368BFF35B8F53E82A
:10368000001F002903D143E800200028F7D1BFF331
:103690005B8F0BD1002008BD53B100684FF0FF32A3
:1036A0004FF0FF3304F088FE0028F3D00348F2E720
:1036B0000348F0E76FF4E040EDE700BFE98FFFFF5C
:1036C000EA8FFFFF08B5064906484023142209F097
:1036D000B3FABDE808400449044805F0E5BF00BF5F
:1036E000881A00206C1A002070D9000060D90000F0
:1036F000014910220A60704710ED00E072B64040A8
:1037000080F31188BFF36F8FBFF34F8F30BF62B666
:10371000BFF36F8F704700BF72B6494081F31188C5
:1037200020BF80F3118862B6704700BF2DE9F041D9
:10373000074686B00C4600294AD08B680093D1E931
:1037400000232748DFF8AC80452108F046FA63697A
:103750000093D4E903232348452108F03EFAE269A7
:103760002148452108F039FA26460025D6ED0B7A86
:1037700096ED087AFCEEE77AEB1C0493CDED057A22
:10378000D6ED0A7AFCEEE77AAB1C0293CDED037A14
:10379000D6ED097AFCEEE77A6B1CCDED017AFCEEF2
:1037A000C77A00932A4617EE903A452140460435E1
:1037B00008F013FA102D06F11006D7D1226E0B482F
:1037C000452108F00AFAA2690948452108F005FADE
:1037D0002146384606B0BDE8F04104F0C1BB00BF49
:1037E00042EA000076EA0000AAEA000006EB0000C8
:1037F0001AEB0000BEEA000043B2002B08DB0122F6
:1038000000F01F0002FA00F05B09024A42F82300B0
:10381000704700BF00E100E043B2002B0DDB012246
:103820005B0900F01F0002FA00F02033034A42F85F
:103830002300BFF34F8FBFF36F8F704700E100E0AD
:10384000054B420900F01F0053F82220012303FA20
:1038500000F01040704700BF00E100E043B2002BD1
:10386000A8BF03F1604301F10101B8BF064B4FEA65
:103870004111ACBF03F5614300F00F00C9B2B4BF02
:10388000195483F80013704714ED00E030BFFFF7C0
:10389000FDBF00BF144A08B5144B22F07F029A60A6
:1038A000BFF34F8FBFF36F8FD3F8882022F47002DD
:1038B000C3F88820D3F8882042F4A002C3F88820F7
:1038C0004FF04042C3F83422BFF34F8FBFF36F8FE6
:1038D0000023E1EE103A04F0D5FB05F059FB00F0AF
:1038E0003BFB04F0D9FB00BF0000000000ED00E04E
:1038F000094A0A4993680968D967094998674B6872
:1039000043F080534B60002383F31188BFF36F8F24
:103910009368D86F704700BFD42B002084DB000071
:1039200000ED00E021498A6882F8C1E04FF03000E4
:103930001044EFF3098C80E8F01F1EF0100F03D144
:1039400002F1800080EC108A202080F31288BFF3FF
:103950006F8F174F4FF000668A698A603E6092F958
:10396000C1E0906F0023936780F311881EF0100F61
:1039700003D00023E1EE103A03E002F1800090EC66
:10398000108AEFF3148323F0040383F31488BFF346
:103990006F8F04B5104600F075FBBDE8044002F1DE
:1039A000300090E8F01F8CF309887047D42B00207A
:1039B00004ED00E01EF0040F0CBFEFF30880EFF3FE
:1039C0000980816911F8021C0229FFD001B508F0B5
:1039D000E2FA01BD017B10B511F0020405D0816E41
:1039E00060318166C16E6039C16642F8203C029B3D
:1039F00042F81C3C039B42F8183C0D49049B42F8DA
:103A0000143C4FF0807342F8043C21F00101002384
:103A100042F8081C203A83674FF47D430265C0F8E2
:103A2000C0301CB14FF60853C0F8C03010BD00BF05
:103A300093B6000030B5017BD0F8C030174A11F0C2
:103A4000020F03F0080503D190F8C140E40613D437
:103A5000546844F0804454604DB943F00803C0F802
:103A6000C030836E60338366C36E603BC36641F0D3
:103A700002010173802030BD516821F08041516006
:103A80004DB123F00803C0F8C030836E603B8366FD
:103A9000C36E6033C3662020EDE700BF30EF00E067
:103AA0000F4B0246986810B5C0B1D0F8C030806E98
:103AB00013F0080F14BF8024202412F1160F04D035
:103AC000031B934206D8824204D281422CBF0021BC
:103AD000012100E00021002908BF002010BD00BF27
:103AE000D42B0020144608B50D460022E1EE102A22
:103AF000EFF3148222F0040282F31488BFF36F8F75
:103B0000BFF36F8F084A906000F0BCFA204685F33F
:103B10000988002163B681F31188BFF36F8F0022FB
:103B2000002307F0B6FD00BFD42B002001B5EFF352
:103B30000580A0F110004FEAC0000449014409C902
:103B40009847BDE8014002490847000028D6000018
:103B5000553B0000044B99689869884203D003499B
:103B60004FF080520A607047D42B002004ED00E033
:103B70002DE9F0412E4C064688462E484521154633
:103B800008F02BF8A26AD70603D52B48452108F088
:103B900024F8A36A180703D52848452108F01DF822
:103BA000234CA36A990721D46FF01507204CA26A11
:103BB000D30703D52248452108F00FF8A36A9806D9
:103BC00003D52048452108F008F8194B9A6AD10618
:103BD00021D49A6A92071ED40020154A936A43F0B2
:103BE000FF03936200232B70BDE8F0811648452146
:103BF00007F0F3FF676BA36A1A06D5D513483A4658
:103C0000452107F0EAFFB8F1000FCFD0A36A23F0F7
:103C10008003A362CAE75B681B05DDD531463846E1
:103C2000FFF73EFF0028D7D080F309880220D4E7B1
:103C300000ED00E04DEB000068EB0000A0EB0000A1
:103C4000F0EB000014EC0000B8EB0000D5EB000036
:103C500070B5234C06460D462248452107F0BDFFAE
:103C6000A26AD10403D52048452107F0B6FFA36A14
:103C70001A0503D51D48452107F0AFFF184CA36A6C
:103C80009B0510D51A48452107F0A7FFA26BA36A30
:103C9000180408D51748452107F09FFF1EB1A36AF5
:103CA00023F40043A3620E4CA36A590503D51248BE
:103CB000452107F092FFA36ADA050BD50F4845218D
:103CC00007F08BFF064A936A002043F47F43936218
:103CD000287070BDA36A9B04F4D509484521EFE71D
:103CE00000ED00E048EC000063EC0000A0EB0000F9
:103CF00079EC000097EC0000B1EC0000D1EC000082
:103D000014EC000010B51D4C1D48452107F065FF5F
:103D1000A26A930103D51B48452107F05EFFA36A01
:103D2000DC0103D51848452107F057FF134CA26A60
:103D3000100303D51548452107F04FFFA36A590327
:103D400003D51348452107F048FF0C4CA26A9203A3
:103D500003D51048452107F040FFA36ADB0303D5D4
:103D60000D48452107F039FF044A936A6FEA03437F
:103D70006FEA13439362002010BD00BF00ED00E026
:103D8000EEEC00000BED000023ED000042ED000022
:103D900065ED00008FED0000AEED00002DE9F04173
:103DA000574BD3F804809CB0C8F30807002686F36D
:103DB0001188BFF36F8F02F07F43B3F17F4F07D1BC
:103DC00002F00C03082B05D14E48452107F005FFF2
:103DD000354604E012074EBF0D4605460126002277
:103DE000F91E8DF807201446092977D8DFE801F07D
:103DF000056B6F687676767676734348452107F0D3
:103E0000ECFE3F4B8DF80740DC6A14F0020405D04D
:103E10003E48452107F0E1FE002406E0DA6A002A68
:103E20001DDA3B48452107F0D8FE9DF807309BB9C5
:103E30006822294602A808F0EAF8099B002E5AD009
:103E4000C3F3080222B96FEA53236FEA43230993AD
:103E500002A92046FFF76AFC1CB0BDE8F081DB6ACE
:103E60005B00E2D52B48452107F0B7FEAB6933F87C
:103E7000022C4DF602739A420DD003F1604303F613
:103E800026631B7873B10DF1070201212846FFF765
:103E90006FFE0446C9E72A681F48452107F09DFECA
:103EA0002C68C2E71D4B1B782BB10DF107010120D7
:103EB000FFF7CEFEEDE71A4B1B889BB2002BB4D068
:103EC000FFF720FFE5E70DF107020021DEE70DF126
:103ED00007010020ECE7134845219BE71249134AEC
:103EE000134818F4F87F08BF0A46A7F110034521CC
:103EF00007F073FE90E723F4FF7323F00103A6E7B6
:103F000000ED00E00CEE00003CEE000058EE00007A
:103F10007EEE000091EE0000B5EE000029ED00E01D
:103F20002AED00E0D6EE0000DEED0000F3ED00002B
:103F3000FFEE0000024A536943F0100353617047DB
:103F400000ED00E0EFF30880EFF3098101B5724660
:103F5000FFF724FF01BD00BF044800232021C21841
:103F60000133302B82F80013F9D1704700E100E0F3
:103F7000002080F31488BFF36F8F09F0AFFA0020A0
:103F80000D490860BFF34F8F0C4880F3088800F09C
:103F900029F8202080F3118809484FF40261401865
:103FA00080F30988EFF314800221084380F314881A
:103FB000BFF36F8FFFF76EFC94ED00E0006500200B
:103FC00000670020064A11680023C1F30721184644
:103FD0008B4200D17047936010610133F8E700BF56
:103FE00090ED00E008B572B6002383F31388FFF765
:103FF000E9FF144B4FF0FF32C3F88020C3F8842050
:10400000C3F88820C3F88C20C3F89020C3F894200C
:10401000C3F89820C3F89C20C3F88021C3F88421FA
:10402000C3F88821C3F88C21C3F89021C3F89421E8
:10403000C3F89821C3F89C2162B6BFF34F8FBFF33A
:104040006F8F08BD00E100E0064B9B68834207D1FB
:10405000EFF3058323B1044A536843F08053536060
:1040600004F032BFD42B002000ED00E0024B034AE5
:104070000348012100F07AB800000420000000206D
:1040800084D9000010B50446FFF7D4FCA26E064B9D
:10409000121AC3E90020054A9A60BDE810400121C8
:1040A000184600F06DB800BF881F002000000B15F7
:1040B000F8B5224F00268E420FDA4468002C39D022
:1040C0009BB104F1FF3C14EA0C0F08D01C483246A7
:1040D000452107F082FD6FF015021046F8BD1F2C38
:1040E000F4D905681CEA050FF0D1202C0568D0F83A
:1040F00008C0D2B20FD9B4F1004F0ED8013CB4FAC7
:1041000084F4C4F11F046400072A4CEA040406D9AD
:104110000C484521DDE70824F6E73E24F4E725F0C6
:104120001F05154345F0100544F00104BA60FD6019
:1041300001323C6101360C30BDE700BF90ED00E07C
:104140001BEF000043EF0000034B05225A60BFF352
:104150004F8FBFF36F8F704790ED00E0BFF35F8F1D
:10416000014B00225A60704790ED00E010B5034CFF
:1041700001232278FFF79CFF207010BDC32D002083
:1041800008B5084A00231278FFF792FF10F1160FC6
:1041900003D0054B0022072800DD08BD98601A6196
:1041A0000130F8E7C32D002090ED00E013490868C6
:1041B000082810B51ED8FFF7D1FF114C496800221E
:1041C000904201F10C0105D10E4B1870FFF7BCFFB6
:1041D000002010BDA26051F80C3C23F01F031343D4
:1041E00043F01003E36051F8043C43F00103236102
:1041F0000132E5E74FF0FF30EBE700BF90D9000058
:1042000090ED00E0C32D00204FF02002EFF311836A
:1042100082F31288BFF36F8F044A0121C2F8401560
:1042200083F31188BFF36F8F0020704700E00140D7
:104230004FF08043C0B2C3F81C05BFF34F8F054950
:10424000054BCA6802F4E0621343CB60BFF34F8FA3
:1042500000BFFDE700ED00E00400FA0520B1034BCC
:10426000800143F001031847704700BF80D8000069
:104270008379064A2C2101FB03239A6A1B7F17339B
:10428000801A23F00303B0FBF3F0704748050020C9
:1042900010B50A4A83792C2404FB03230A685B6A5D
:1042A0005C6823689A4294BF0A600B60FFF7E0FFE6
:1042B000D4E9002302FB003010BD00BF48050020F8
:1042C00000F07F03082B41B204D010F0780F01D02A
:1042D00000207047002900F00F0200F0080005DA06
:1042E00058B9084800EB42104C30704738B90548BF
:1042F00000EB421000F5B670704703487047034862
:10430000704700BF94250020E026002000280020F0
:104310000146014808F064BD30050020014902480B
:1043200008F089BDBC2500205808002013B50B48B3
:1043300002F068FD00240A4802F0ACFD4FF0FF33A4
:104340004FF4806207490848009404F06BFA07496B
:10435000074808F067FD204602B010BDEFF10000ED
:10436000CCD9000080380020580800200147000008
:10437000BC25002010B51149BFF35B8F01F120036C
:10438000002253E8000F012803D143E80024002C49
:10439000F7D1BFF35B8F0CBF012010460CD1CC6965
:1043A0000C31204607F045F910F1780F04D1204672
:1043B000BDE8104007F018B910BD00BF94250020DB
:1043C00038B5074D074C00220023284604F0B8F802
:1043D00020B1011D204608F04AFCF4E738BD00BFBB
:1043E00030050020B004002007B500231348002248
:1043F00001A903F0F5FED8B11148452107F0EDFB06
:10440000FFF7DEFF0D480022002301A903F0E8FEBC
:1044100028B10C48452107F0E0FB00200AE0019894
:10442000042340600374FFF773FFFFF777FFF4E79F
:104430000198406003B05DF804FB00BFB0040020A9
:1044400089EF0000ACEF000073B583780193064656
:104450001846FFF735FF019BF4781A0605461CD570
:104460004CB1032C4CD027482246452102B0BDE870
:10447000704007F0B2BBFFF7B7FF034600283FD0FC
:104480000122AC770274032202739D60FFF740FFA4
:1044900002B0BDE87040FFF741BF4CB1012CE2D142
:1044A000FFF7A2FF034658B36C7704740473ECE77C
:1044B000FFF79AFF20B3B378134A13F0800F03F08D
:1044C000080111D041B1D2F8A836EB600123037482
:1044D000022303738560D9E703F00F03142101FB66
:1044E0000323D3F80836F0E711B1D2F8A837ECE788
:1044F00003F00F03142101FB0323D3F80837E4E78B
:1045000002B070BDCDEF00000070024070B5142203
:104510008AB0064600210DEB020007F083FD3378D8
:10452000013B052B26D8DFE803F08903171779191B
:1045300003238DF81C300024FFF756FF0346C8B153
:1045400000228DF82020047400F10802DDE9070143
:1045500082E80300184626E00423EAE7B3780193D3
:104560001846FFF7ADFE827A019B054622B1013A5B
:10457000022A4FD90AB070BD1A06F47818D53CB19A
:10458000032CF7D02E482246452107F026FBF1E701
:10459000FFF72AFF03460028ECD00122AC77027413
:1045A000032202739D60FFF7B3FEFFF7B7FEE1E75A
:1045B00054B1012CE6D1FFF717FF03460028D9D0EC
:1045C0006C7704740473EDE7FFF70EFF04460028D0
:1045D000D0D00123037402230373856005F10C011D
:1045E000B07808F07CFA024618B11648452107F069
:1045F000F4FA154AE968B2F88C328B4206D95B1A94
:10460000A2F88C3203F0B6F92046CCE70023A2F8DA
:104610008C32F9E73046FFF717FFABE703A803F04A
:1046200083F99DF80D30052B04D19DF80C3013F063
:10463000600F9FD0054B079301247DE702247BE7A1
:10464000CDEF0000FEEF00009425002000270020A1
:10465000022810B5024611D80C4B1C5CFFF7C4FEB3
:1046600090B1002202740472FFF752FE084B93F8D7
:1046700024304BB1BDE81040FFF750BEBDE81040FC
:104680000448452107F0A9BA10BD00BFECF10000B5
:104690009425002023F0000038B5002464F07F004A
:1046A000C0B2FFF70DFE013407F0CEFC082CF5D1A7
:1046B0000F4D0024E0B2FFF703FE036913B905EBC9
:1046C00084130361013407F0BFFC082CF2D1094CBC
:1046D00004F5A67007F0B8FCD4F87C3213B9064B89
:1046E000C4F87C32054807F0AFFC002038BD00BF9D
:1046F0009423002094250020941F002000280020EF
:104700002DE9F043DFF8B892A44C85B007460022AB
:104710000023484603F014FF064610B905B0BDE873
:10472000F08394F82530327C06F104083BB9002A66
:1047300000F098809A48414608F099FAE7E7042A81
:1047400000F27481DFE812F08E00050014013E01D2
:104750005E0117F8043C2BB9B36892485A7A452198
:1047600007F03BFA337BB568032BE3D8DFE803F0AF
:10477000023D62676E6908220021304607F052FC54
:10478000894A8A48D2F880343370D2F884347370FE
:10479000D2F88834D2F88C1443EA01237380D2F81B
:1047A0009034D2F8941443EA0123B380D2F89834B9
:1047B000D2F89C2443EA02230822F3803146EA60BF
:1047C00007F025FC2B68687A0021984796F900309D
:1047D000002B06DBF38823B1A4F88C3203F0CAF86F
:1047E000A8E70023A4F88C32A4E76B7F002BA1D0AC
:1047F0002B7F002B9ED000264FF0FF326E774FF0BC
:10480000FF336B482E7707F034FC6B6901936B68BC
:10481000CDE9023601A9687A02F0B2FE654B9842F2
:10482000024603D06448452107F0D7F9604807F0F5
:104830001EFC7FE72B680121687A98477AE7AB7AFC
:104840006BB9EB7F5BB94FF0FF324FF0FF33584845
:1048500007F00FFC03F0BAF8554807F008FC2B6886
:104860000221E9E7327A042A3FF664AFDFE802F07A
:104870005B032569750002F033FE054600287FF4CE
:1048800059AF02F06FFDBFF35B8F4C49012351E834
:10489000002F002A03D141E800300028F7D1BFF3F0
:1048A0005B8F7FF447AF41F8105C41F8085CE0692A
:1048B0006361143906F04FFE3CE7002565F07F0088
:1048C000C0B2FFF7FDFC037A13B1407A03F064FA3B
:1048D0000135082DF2D194F854311BB194F85501EB
:1048E00003F05AFA0025E8B2FFF7EAFC037A13B1A5
:1048F000407A03F051FA0135082DF4D194F874325E
:104900001BB194F8750203F047FA012002F0C2FDD2
:10491000012384F825302368002B3FF40BAF0021DE
:104920000220984706E7002584F8255003F0C0F9D7
:10493000FFF720FD2368002B3FF4FCAE294604203E
:10494000EFE7002B3FF4F6AE03F0CAF92368002B23
:104950003FF4F0AE00210520E3E72268002A3FF48F
:10496000E9AE002B3FF4E6AE002106209047E1E6D9
:1049700007F110054FF0FF334FF0FF32284607F0E4
:1049800078FBFFF789FE284607F071FB57F8283CB3
:10499000002B3FF4CFAE00210120C2E79425002078
:1049A000B004002043F00000007002409825002071
:1049B000CC2500200000AD0B6EF00000B4250020D7
:1049C0003005002094F874325BB1012584F88952D7
:1049D00084F88852FFF708FD58B91748452107F0B9
:1049E000FCF857F8283C002B3FF4A4AE00210A2025
:1049F00097E7124A057405738260FFF789FCFFF799
:104A00008DFCEEE745210E4807F0E7F807F0DDFFE3
:104A100003F04EF902F09CFCFFF7D2FCFFF73CFEDE
:104A200007F0CCFF074802F065FD83E60648452104
:104A300007F0D3F87EE600BF99F0000000280020C0
:104A4000B2F000000D450000CEF0000038B51A4D60
:104A500095F824405CBB05F1380008F04AF920467F
:104A600000F0F2FB2246E86101212720FEF7F6FE66
:104A7000124802F03FFD124B98421AD107F09EFFF8
:104A8000FFF70AFE044610B9012385F824300D4BC8
:104A90001B680BB1FFF742FC4FF08043D3F838346A
:104AA000DB0702D50020FFF7D3FD204638BD0024E8
:104AB000FBE76FF00404F8E7942500200D450000A3
:104AC0000000AD0B3005002010B54FF0FF324FF065
:104AD000FF331F4807F0CDFAFFF772FC002464F0A3
:104AE0007F00C0B2FFF7ECFB01342022002107F069
:104AF00099FA082CF3D10024E0B2FFF7E1FB01346E
:104B00002022002107F08EFA082CF5D12022002166
:104B1000104807F087FA202200210F4807F082FA98
:104B200002F0DEFC08B103F0C3F802F0D1FC08B1DA
:104B300002F00EFCFFF71EFC07F047FF07480024B9
:104B400080F82440383007F092FA204610BD00BFAC
:104B5000CC250020E02600200028002094250020FD
:104B6000074B93F824203AB193F82530002B0CBF63
:104B70006FF01200002070476FF01200704700BF06
:104B80009425002008B50278017902F00F0339B9A5
:104B900093B10A48452107F020F84FF0FF3008BDD7
:104BA000082B02D906484521F5E7012904D113074E
:104BB00002D404485721EEE70020F0E7EAF00000B5
:104BC0000EF1000032F1000038B5114B93F824309B
:104BD0000446D3B105782846FFF772FB68B14572E9
:104BE00023798372618841602B0709D44B1E0B42E5
:104BF00006D00848452106F0F0FF6FF0150003E0ED
:104C0000284607F067FF002038BD6FF01200FBE771
:104C1000942500204DF1000038B5144B93F8242062
:104C2000054602B393F82530EBB1FFF749FB044684
:104C3000B0B1837A012B0FD007D9023B012B07D9E2
:104C40006269A2610020E06038BD02F0C7FEF7E7AC
:104C5000284602F03BFEF3E70548452106F0BDFF7C
:104C60006FF01500F0E76FF01200EDE794250020DB
:104C70007AF1000038B50E4B93F82420054682B136
:104C800093F825306BB1FFF71BFB68B115F00804F2
:104C90000AD1284602F03CFE284603F0CFF8204611
:104CA00038BD6FF01200FBE76FF01500F8E700BFAA
:104CB0009425002038B50C4B93F8242005460C466B
:104CC00062B193F825304BB1FFF7FAFA48B144B11D
:104CD000284602F003FE2070002038BD6FF012005D
:104CE000FBE76FF01500F8E794250020F8B5134EA8
:104CF00096F824200446BAB1FFF7E2FA0546B0B1AF
:104D0000230705D4204602F003FE204603F096F860
:104D10002F7A7FB996F8250001232B7218B120460F
:104D200003F03AF83846F8BD6FF01200FBE76FF079
:104D30001500F8E76FF07700F5E700BF9425002035
:104D400038B5114B93F8242004469AB193F82530D6
:104D500083B1FFF7B5FA054678B1037A83B12046EF
:104D6000002402F0EDFF2846AC7707F06DF92C72B5
:104D7000204638BD6FF01200FBE76FF01500F8E732
:104D80006FF07700F5E700BF942500202DE9FF477D
:104D9000DFF8FC801C4698F8243007468946164602
:104DA000C246002B69D098F82530002B65D0030649
:104DB0000AD5FFF785FA054630B1037A3BB930488A
:104DC0003A46452106F009FF6FF015040FE04FF059
:104DD000FF334FF0FF3208F1380007F04AF9AB7F9C
:104DE0004BB108F1380007F042F96FF00A04204691
:104DF00004B0BDE8F08716B9EB7F03B1EE77AB7A6C
:104E0000BBB95EB1BAF80A30B34207D96A68B6FBDB
:104E1000F2F302FB13630BB90123EB7702F0E6FD1B
:104E2000B84206D002F0D2FD164807F020F900245F
:104E3000DDE70123AB774FF0000801A93846CDE943
:104E40000196CDF80C8002F09BFB0F4B9842024676
:104E50000ED085F81E800CB1C4F800800B484521A7
:104E600006F0BBFE6FF00404064807F000F9BEE749
:104E7000002CF9D026604446F6E76FF01204B6E73E
:104E8000A1F10000CC2500200000AD0BC5F1000011
:104E9000942500202DE9F0411D46254B174693F837
:104EA000242080460E46002A3ED093F82530002B61
:104EB0003AD010F0800F0DD101B95FB94046FFF72D
:104EC000FFF9044630B1037A3BB91A4842464521FE
:104ED00006F083FE6FF0150013E04FF0FF33164825
:104EE0004FF0FF3207F0C5F8E3689F42B84628BF8D
:104EF000984646B93FB905B12B600F4807F0B7F89F
:104F00000020BDE8F081A1694246304607F07FF8F5
:104F1000A3694344A361E368A3EB0803E360002DA6
:104F2000EBD0C5F80080E8E76FF01200E9E700BFBA
:104F300094250020A1F10000CC25002070B5214D62
:104F400095F824300646002B38D095F82530ABB3C1
:104F500003060AD4FFF7B4F9044630B1037A3BB92B
:104F600019483246452106F038FE6FF0150018E06A
:104F70004FF0FF334FF0FF3205F1380007F079F8BA
:104F8000E368B3B9012663692677A361637F83B1C0
:104F9000FFF72AFA30B905F1380007F068F86FF02A
:104FA0000B0070BD067484600673FFF7B1F9FFF75C
:104FB000B5F9064807F05BF80020F2E76FF0120041
:104FC000EFE700BF94250020A1F10000CC250020D0
:104FD000084B93F8243010B50C462BB1FFF770F94D
:104FE00028B10460002010BD6FF01200FBE76FF0E5
:104FF0001500F8E794250020014B1860704700BFAA
:105000009425002008B5074B93F8243023B1FFF70F
:1050100057F920B1406808BD6FF01200FBE76FF050
:105020001500F8E79425002070B504460D48231AB2
:105030009A100D4B5343DBB20C255D4305F1400341
:105040000E461844402107F02EF8011E04DB074BE2
:105050002B445B689847002120463346BDE87040EA
:10506000184700BF34280020B76DDBB6E8D9000030
:105070002DE9F0410F4C104D031B9B105D43EBB22B
:105080000C255D43074605F140000E4620444021B3
:1050900007F022F8011E08DB084B2C44C4E90E3649
:1050A000074B5B59BDE8F041184738463346BDE829
:1050B000F041184734280020B76DDBB63BC1000033
:1050C000E8D90000002270B5012104461046FEF721
:1050D000C5FB0020FEF790FB0F4801F051FA0F4B83
:1050E000984215D101F05CFA26690D49304606F068
:1050F0001FFA00280BDB012535642469084904F1F7
:105100001C0006F015FA002801DBE564002070BDE4
:105110006FF00400FBE700BF615100000000AD0B21
:1051200000DA000073B50C2301460B484B43C4184A
:10513000D4E90E5200264033A6631844019206F0CB
:10514000E9FF35B1019A05482B4602B0BDE8704031
:10515000184702B070BD00BF3428002080D5000081
:1051600010B1012804D07047034B1B6C5B0701D1C1
:10517000FFF7D8BF704700BF3428002008B54FF0B4
:105180002003EFF3118183F31288BFF36F8F124A6C
:10519000136843F0020013F0010310600CD04FF0CD
:1051A0008042D2F80C34D2F80C2413F0010303D05F
:1051B0000A4806F0AFFF012381F31188BFF36F8F18
:1051C00023B1BDE808400020FFF7ACBFBDE80840B0
:1051D000012001F0F3B900BF8428002074280020CA
:1051E000094BBFF35B8F53E8002F22F0020143E825
:1051F00000100028F7D1BFF35B8FD30702D4012042
:1052000001F00EBA704700BF842800207FB500224D
:105210000123CDE9022304ABCDE90433094ACDF8DB
:1052200000D06B46CDF804D006F0AEFF002805DBB9
:105230004FF480420023684603F0DCF907B05DF8C4
:1052400004FB00BF5BC10000024AC3B21C2003FB89
:1052500000207047342800202DE9F8433A49BFF375
:105260005B8F0646012251E8003F41E800200028FC
:10527000F9D1BFF35B8F33B9344935484B60CB600C
:105280008A6006F068F9731E012B32D8012E07D10F
:105290004FF08043D3F81C3403F00303012B28D0D4
:1052A00007F00EFD044618B92A4B1B78002B44D199
:1052B0004FF02003EFF3118583F31288BFF36F8F54
:1052C0000124254FDFF89480DFF894904FF080425E
:1052D000D2F81834D2F81824D2030CD503F0030303
:1052E000012B01D0012E06D10CB385F31188BFF339
:1052F0006F8FBDE8F883ACB12846FEF70DFA4FF08A
:105300008042D2F81835002BE0D139680029DDD071
:105310003B603B680123C2F81835C8F88031C9F8F2
:105320000030D3E70021212003F09EFDE7E74FF096
:1053300080430222C3F80423DBE74FF080430222BC
:10534000C3F808230546BCE788280020242800204D
:10535000502800201B3200200401004000E100E042
:1053600008000040430970B502D0012B1DD070BD6C
:105370000F4E336959680029F9D00C6800F01F03FB
:105380000125002C05FA03F538BF00248A682A405D
:1053900002D04B6830469847002CE8D02368002B99
:1053A00038BF002321461C46F0E7024EE1E700BF6C
:1053B00098D50000B0D5000030B54068047B01F0FE
:1053C0001F05B2F5005F45EA441585B04FF00004B3
:1053D00004D1284601F0C6FB002032E0B2F5804F30
:1053E000CDE902442FD1B3F5003F0CBF04230523C0
:1053F0008DF80830836823FA01F1C9072FD4B2F57C
:10540000A03F2CD16A09012A05F01F031C4A03F5AD
:10541000E07318BF4FF0A04252F82330DB071ED4D0
:105420000DF107042146284601F008FB154B984270
:1054300014D1204601F04CFB134B98420ED06FF074
:105440000B0005B030BDB3F5C02F05D0B3F5003F5C
:105450000CBF02230123CBE70323C9E703940023F6
:10546000194602AA284601F0C7F9074B984204D111
:105470000121284601F032FBAEE76FF00400E0E7BF
:10548000000300500400AD0B0000AD0B10B501F09F
:105490000FFB044668B901F0E3FA084B98420AD1C1
:1054A0000748214601F0C4FA224605210620FEF7EE
:1054B000D5F9002010BD6FF00400FBE70000AD0B34
:1054C000655300002DE9F04347683B7B01F01F0561
:1054D00085B00E4645EA43151446CAB902A92846C6
:1054E00001F0ACFA0446284601F05EFB484B9842B6
:1054F00004D06FF0040005B0BDE8F083844205D10C
:105500009DF8080001F0DEFAA042F2D10020F2E797
:105510004FF000090DF103013046CDE9029901F089
:105520008DFA4B46804602AA4946284601F064F9A6
:10553000374B984202D06FF01500DCE7804503D16D
:105540009DF8030001F0BEFAA3054ED5314B324A57
:10555000234093423AD00CD8062B14D004D893B1F0
:10556000022BE8D104230EE0B3F5801FE3D1012321
:1055700009E02A4A93422BD0B3F5A00F2AD0B3F505
:10558000800FD8D102238DF8043084F48073C3F3E4
:105590000023E0068DF8053054BFC4F34013032305
:1055A00021058DF8063017D57B68012101FA06F632
:1055B000C3F80865002201A9284601F0C9F9144B77
:1055C000984214BF6FF01500002094E70723DAE734
:1055D0000523D8E70323D6E7620541BF7B68012195
:1055E00001FA06F6C3F80C65E4E7E3064FF00003A2
:1055F00054BFC4F3401403241A4601A928468DF869
:10560000044001F0F9F8024B98423FF47FAF92E773
:105610000000AD0B0600F000060010000200400084
:10562000024B0B6001231360704700BFA4280020C9
:105630000048704768DA000037B50C462046194626
:105640000193154606F043FE019B40B909482246E6
:10565000452106F0C2FA6FF0150003B030BD33B13A
:105660001A462146284606F0D2FC0020F5E71846E7
:10567000F3E700BF1EF2000010B5012211460648F4
:10568000064C07F0B8FB07F089F9206007F082F9B3
:105690006060002010BD00BFAC280020A4280020BE
:1056A0004FF08042D2F81015D2F8103501F01E01EB
:1056B00023F01F030B4343F00103C2F81035024BE4
:1056C00000221A70704700BFC42D00204FF08041A7
:1056D000D1F8102512F001001AD0D1F810050D4BA9
:1056E00020F01F0002F01E021043C1F810051868D8
:1056F00058B1D1F8103523F01F03134343F00103D1
:10570000C1F810356FF08B007047034B01221A70FF
:10571000704700BF08010040C42D00202DE9F04172
:105720000E46144607F036F921460546304606F087
:10573000CEFD374600283CD0B6FBF5F305FB1363DE
:1057400023B9B4FBF5F205FB124242B11C482346D3
:105750003246452106F041FA6FF015041FE0A542DC
:105760002CD84FF0FF324FF0FF331648164EDFF8BB
:10577000608002F03FFF07F00DF905463368082B03
:1057800010D0384601F00CFB98F800300BB1FFF751
:1057900087FF641B2F44F1D10A4802F005FF204621
:1057A000BDE8F081FFF792FF0028EAD06FF08B048C
:1057B000F2E70648234632464521CBE71446EEE79A
:1057C00040F20000AC280020300100101EF2000062
:1057D000C42D00202DE9F0470E46304619461746E5
:1057E0001C4606F074FD50B9234823463246452135
:1057F00006F0F3F96FF015042046BDE8F08744EA9F
:10580000060515F0030504D01C4823463246452101
:10581000EEE7002CF0D01A48DFF86C90DFF86CA0AF
:105820004FF0FF324FF0FF3302F0E4FE24F00304A8
:10583000A54205EB060809D1124AD2F80034DB076D
:10584000FBD500240E4802F0AFFED5E7D9F80030B2
:10585000082B0AD07959404601F0C2FA9AF8003074
:105860000BB1FFF71DFF0435E2E7FFF72FFF00281C
:10587000F0D06FF08B04E5E71EF2000064F2000048
:10588000AC28002000E0014030010010C42D0020B1
:10589000F0B54B79012B26D0032B21D110268B7923
:1058A000032B1DD1CC790CB1012C19D10A7912B17D
:1058B000022A15D10E220B684568B3F5164F2D68E4
:1058C00065D02DD8B3F5165F64D016D8B3F5966FB2
:1058D00062D00AD8B3F5967F61D0B3F5167F61D058
:1058E0006FF0850052E00026D9E7B3F5166F5CD063
:1058F000B3F5965FF4D1374B3CE0B3F5E14F57D0A9
:1059000007D8B3F5615F55D0B3F5964FE8D1324B68
:1059100030E047F61227BB42E2D14FF4000329E002
:10592000B3F5613F48D013D8B3F5963F47D009D8B7
:105930004DF6C027BB4244D0B3F5614FD0D14FF4F0
:105940006B0317E0B3F5E13FCAD14FF0EB7311E001
:10595000B3F5612F38D008D8204FBB4237D0B3F50C
:10596000E12FBDD14FF0E86304E01D4FBB42B7D13A
:105970004FF08053C5F82435036903C934432243EB
:105980000433C5F86C2583E803000020F0BD4FF414
:105990001D03EFE7134BEDE74FF49E23EAE74FF4C7
:1059A000A033E7E74FF41C33E4E74FF41D23E1E7AE
:1059B0000D4BDFE70D4BDDE74FF06C73DAE70C4B77
:1059C000D8E74FF46503D5E74FF07063D2E74FF0A7
:1059D0008063CFE700B0130000A04E0090D003001A
:1059E00040420F000050270000C0750000F03A0050
:1059F00000903A0100F01F0240090128044B02F513
:105A0000E07218BF4FF0A043890043F8221070479E
:105A100000030050F8B5066905460F4607F050F937
:105A200010B9204B1B7883B94FF02003EFF311849A
:105A300083F31288BFF36F8F284606F030FD28BB32
:105A400084F31188BFF36F8FEEE76424284606F0D5
:105A500026FD70B9012006F03FFF013CF6D1002180
:105A6000212003F001FAF0E784F31188BFF36F8F70
:105A7000F5E74FF02003EFF3118483F31288BFF3AF
:105A80006F8F284606F00BFD0028EDD0314601222D
:105A900001F8147F284606F093FD84F31188BFF3C4
:105AA0006F8FF8BD1B32002000F01F024009012853
:105AB000044B02F5E07218BF4FF0A043032143F8F6
:105AC000221070470003005000F01F014009012818
:105AD000044B4FF0010218BF4FF0A0438A40C3F8B7
