:0200000280007C
:107000003DB8F396000000000002000038D60400EE
:107010000000000000000000000000000000000070
:10702000FFFFFFFFFFFFFFFFFFFFFFFFFFFFFFFF70
:10703000FFFFFFFFFFFFFFFFFFFFFFFFFFFFFFFF60
:10704000FFFFFFFFFFFFFFFFFFFFFFFFFFFFFFFF50
:10705000FFFFFFFFFFFFFFFFFFFFFFFFFFFFFFFF40
:10706000FFFFFFFFFFFFFFFFFFFFFFFFFFFFFFFF30
:10707000FFFFFFFFFFFFFFFFFFFFFFFFFFFFFFFF20
:10708000FFFFFFFFFFFFFFFFFFFFFFFFFFFFFFFF10
:10709000FFFFFFFFFFFFFFFFFFFFFFFFFFFFFFFF00
:1070A000FFFFFFFFFFFFFFFFFFFFFFFFFFFFFFFFF0
:1070B000FFFFFFFFFFFFFFFFFFFFFFFFFFFFFFFFE0
:1070C000FFFFFFFFFFFFFFFFFFFFFFFFFFFFFFFFD0
:1070D000FFFFFFFFFFFFFFFFFFFFFFFFFFFFFFFFC0
:1070E000FFFFFFFFFFFFFFFFFFFFFFFFFFFFFFFFB0
:1070F000FFFFFFFFFFFFFFFFFFFFFFFFFFFFFFFFA0
:10710000FFFFFFFFFFFFFFFFFFFFFFFFFFFFFFFF8F
:10711000FFFFFFFFFFFFFFFFFFFFFFFFFFFFFFFF7F
:10712000FFFFFFFFFFFFFFFFFFFFFFFFFFFFFFFF6F
:10713000FFFFFFFFFFFFFFFFFFFFFFFFFFFFFFFF5F
:10714000FFFFFFFFFFFFFFFFFFFFFFFFFFFFFFFF4F
:10715000FFFFFFFFFFFFFFFFFFFFFFFFFFFFFFFF3F
:10716000FFFFFFFFFFFFFFFFFFFFFFFFFFFFFFFF2F
:10717000FFFFFFFFFFFFFFFFFFFFFFFFFFFFFFFF1F
:10718000FFFFFFFFFFFFFFFFFFFFFFFFFFFFFFFF0F
:10719000FFFFFFFFFFFFFFFFFFFFFFFFFFFFFFFFFF
:1071A000FFFFFFFFFFFFFFFFFFFFFFFFFFFFFFFFEF
:1071B000FFFFFFFFFFFFFFFFFFFFFFFFFFFFFFFFDF
:1071C000FFFFFFFFFFFFFFFFFFFFFFFFFFFFFFFFCF
:1071D000FFFFFFFFFFFFFFFFFFFFFFFFFFFFFFFFBF
:1071E000FFFFFFFFFFFFFFFFFFFFFFFFFFFFFFFFAF
:1071F000FFFFFFFFFFFFFFFFFFFFFFFFFFFFFFFF9F
:10720000A0A50120513C030019F204003D3C0300FD
:107210003D3C03003D3C03003D3C030000000000FA
:10722000000000000000000000000000E53903003D
:107230003D3C0300000000008D3903003D3C03008D
:1072400045390300473C0500453903004539030033
:10725000453903004539030045390300453903002A
:107260000F3C050045390300453903002D3C05005E
:10727000453903004539030045390300453903000A
:1072800045390300453903004539030045390300FA
:1072900045390300453903004539030045390300EA
:1072A00045390300453903004539030045390300DA
:1072B00045390300453903004539030045390300CA
:1072C00045390300453903004539030045390300BA
:1072D00045390300453903004539030045390300AA
:1072E000453903004539030045390300453903009A
:1072F000453903004539030045390300453903008A
:1073000001F0FF01102A2BDB10F0070F08D010F856
:10731000013B013A8B422DD010F0070F42B3F6D15A
:10732000F0B441EA012141EA014122F007047FF073
:1073300000070023F0E80256083C85EA010586EACA
:10734000010685FA47F5A3FA87F586FA47F6A5FA06
:1073500087F68EB9EED1F0BC01F0FF0102F0070212
:1073600032B110F8013B013A83EA010313B1F8D1BD
:107370000020704701387047002D06BF354603389E
:10738000073815F0010F07D1013015F4807F02BFD7
:10739000013015F4C03F0130F0BC0138704700BF28
:1073A00053B94AB9002908BF00281CBF4FF0FF316C
:1073B0004FF0FF3000F06CB9ADF1080C6DE904CE70
:1073C00000F006F8DDF804E0DDE9022304B07047C0
:1073D0002DE9F047089E0D4604468E46002B40F0EE
:1073E00082808A42174646D9B2FA82F24AB1C2F185
:1073F000200105FA02F320FA01F1974041EA030E59
:1074000094404FEA1748230CBEFBF8FCB9B208FBC6
:107410001CEE43EA0E430CFB01F098420AD9FB181C
:107420000CF1FF3580F01681984240F21381ACF1E7
:10743000020C3B441B1AA4B2B3FBF8F008FB103358
:1074400044EA034400FB01F1A14209D93C1900F1CF
:10745000FF3380F00181A14240F2FE8002383C44BB
:10746000641A40EA0C4000211EB1D4400023C6E952
:107470000043BDE8F08702B9FFDEB2FA82F2002ACB
:107480004FD1CB1B4FEA174E1FFA87F80121B3FBF0
:10749000FEFC250C0EFB1C3345EA034508FB0CF3F0
:1074A000AB4207D97D190CF1FF3002D2AB4200F29A
:1074B000E7808446ED1AA3B2B5FBFEF00EFB105533
:1074C00043EA054408FB00F8A04507D93C1900F140
:1074D000FF3302D2A04500F2D7801846A4EB08047F
:1074E00040EA0C40C0E78B4208D9002E00F0AF8084
:1074F0000021C6E900050846BDE8F087B3FA83F12C
:1075000000294BD1AB4202D3824200F2B780841AE9
:1075100065EB030301209E46002EAAD0C6E9004E6B
:10752000A7E7C2F1200C01FA02F3974020FA0CF011
:107530004FEA174E21FA0CFC1843BCFBFEF1050C78
:107540000EFB11CC1FFA87F845EA0C4501FB08F346
:10755000AB4204FA02F409D97D1901F1FF3C80F035
:107560008B80AB4240F2888002393D44EB1A85B2F1
:10757000B3FBFEF00EFB103345EA034500FB08F3B6
:10758000AB4207D97D1900F1FF3C71D2AB426FD9F4
:1075900002383D44EB1A40EA014178E7C1F1200C82
:1075A0008B4022FA0CF71F4320FA0CF405FA01F382
:1075B0004FEA174E25FA0CF51C43230CB5FBFEF9D8
:1075C0001FFA87F80EFB195543EA054509FB08FA2F
:1075D000AA4502FA01F200FA01F308D97D1909F16E
:1075E000FF3047D2AA4545D9A9F102093D44A5EB90
:1075F0000A05A4B2B5FBFEF00EFB105544EA0544A3
:1076000000FB08F8A04507D93C1900F1FF352DD241
:10761000A0452BD902383C4440EA0940A4EB0804B9
:10762000A0FB02894C45C6464D4619D316D05EB123
:10763000B3EB0E0264EB050404FA0CFCCA404CEAFE
:107640000202CC40C6E900240021BDE8F0873146A3
:1076500030460EE7AC46EDE6184601E74345E6D274
:10766000B8EB020E69EB07050138E0E72846D3E7DF
:1076700060468FE78146BAE7614677E708464BE701
:10768000ACF1020C3D4415E702383C4426E700BF4C
:10769000704700BFF8B515460A4A1C4656682EB119
:1076A00001B02A46B446BDE8F040604700208DF89E
:1076B0000000684615F010F89DF80000281A2070A8
:1076C0000020F8BD00000020002819D003781349DD
:1076D000134A13B1012B0ED011E00379012B00D016
:1076E0006BB943790BB1012B09D18368643B8B42A1
:1076F00005D2C0680EE00379012B02D00BB1002047
:10770000704743790BB1012BF9D1C368643B8B42BD
:10771000F5D280689042F2D8012070473D86010082
:10772000FF1FA10710B5054C206810B1804700204D
:107730002060BDE8104002F01FB8000008000020E3
:107740002DE9F0410E46050004D000F045F807464B
:1077500000240AE06FF01500BDE8F081204600F03B
:1077600041F8807838B1641CE4B2BC42F6D300BF63
:107770006FF00B00F0E72746FF2CF9D0204600F011
:1077800031F8044615F04BF927712146074801F0FE
:10779000CBFFE070202805D00120A560A0703770D5
:1077A0000020D9E76FF02200D6E700007F570200E3
:1077B00010B5820702D06FF00D0010BD054A1170A0
:1077C000506028B101EBC1018A00002115F0ADFB2A
:1077D000002010BD0C000020014800787047000018
:1077E0000C00002005490A78904201D30020704720
:1077F000496800EBC00001EB800070470C000020DE
:1078000070B50546202A27D019481A4C00EB831C76
:107810000CEB420004EB8303202922D00CEB410146
:1078200040784C784870204601460CEB410091426C
:1078300005704078F8D193F82220202A1ABF0CEB6B
:107840004202547083F8214020220CEB410C8CF84A
:10785000012083F8221070BD40F27E21702003F0D9
:1078600001FA93F82040407883F82000DBE700001D
:1078700004200020842000202DE9FF4F85B015460C
:107880000C4602F057F9284420F07F40029021680E
:10789000081A0002C11700EB11600012002800F363
:1078A000D580AC48089FAC4E00EB8700039090F861
:1078B00020502020E9460DF104088DF8000006F55F
:1078C000407A202D18BF0AEB871B25D005EB450019
:1078D00006EBC0002268C168511A0902CA1701EB01
:1078E00012610830091217D4618971B1418961B9F7
:1078F00000F0B4FD02F01EF92168081A0002C11759
:1079000000EB11600012332806DB0BEB450089F811
:1079100000504578202DD9D199F8000088F8000052
:10792000A146202D1CBF8D4800EB871B00F00E8167
:1079300005EB450106EBC10AD9F80420DAF8081076
:107940004846891A0902CA1701EB12610AF10807B1
:10795000091215D47989002900F0F880418900299D
:1079600040F0F48000F07AFD02F0E4F83968081A7B
:107970000002C11700EB11600012332880F2E6808C
:1079800088F800509AF8141099F80C00814206D932
:107990000BEB45004578202DCAD100F0D7B89DF8F3
:1079A000040000EB400006EBC005688AEF68002881
:1079B00043D16089E8B3A86815F0CFF8698A2A7CBA
:1079C000674B1144491C4218984204D940F209619E
:1079D000702003F047F96348814204DD40F20A61F8
:1079E000702003F03FF96048814204DA40F20B61F5
:1079F000702003F037F95D489042DCBF02F5F702D2
:107A0000A2F1F85205DD002ABCBFA2F5F70202F18F
:107A1000F852104602F08EF820F07F41781A0002EA
:107A2000C21700EB126000123328B8BF01F1330017
:107A300000E002E0B8BF20F07F470298381A000249
:107A4000C11700EB11600012002803DD09B000200F
:107A5000BDE8F08FD4E90010401A384427F07F4188
:107A600020F07F40C4E900100398DDF820806F46C5
:107A700090F8205020200DF1040A8DF80000202DF0
:107A80001CBF364800EB881925D000BF05EB450028
:107A900006EBC0002268C168511A0902CA1701EB3F
:107AA00012610830091216D4618971B1418961B936
:107AB00000F0D4FC02F03EF82168081A0002C11759
:107AC00000EB11600012332805DB09EB45003D7027
:107AD0004578202DDAD138788AF800002746202D05
:107AE0001CBF1E4800EB881B30D005EB450106EBA0
:107AF000C1097968D9F808203846511A0902CA170D
:107B000001EB126109F10808091212D4B8F80A1041
:107B1000E1B14189D1B900F0A1FC02F00BF8D8F82D
:107B20000010081A0002C11700EB11600012332880
:107B30000CDA8AF8005099F81400397B88427FF6F5
:107B40002EAF0BEB45004578202DCED109B001209A
:107B5000BDE8F08F84200020041D002004200020B8
:107B6000FF7F841E0020A10700E05EF80080841ED5
:107B70002DE9F05F04463C480E4600EB86003B4F83
:107B800090F82050202098469246107007F54079D2
:107B9000202D18BF09EB861B28D000BF05EB450040
:107BA00007EBC00000F10801C0682268101A00024B
:107BB000C21700EB1260001218D4608978B14889AE
:107BC00068B9084600F04AFC01F0B4FF2168081AC1
:107BD0000002C11700EB11600012332806DB0BEB2B
:107BE00045008AF800504578202DD7D19AF800003A
:107BF00088F80000202D18BF09EB861A30D005EB5D
:107C0000450107EBC1096168D9F808202046511ADF
:107C10000902CA1701EB126109F10806091210D412
:107C20007189E9B14189D9B900F018FC01F082FFEE
:107C30003168081A0002C11700EB116000123328E6
:107C40000EDA88F8005099F81400217B884202D897
:107C50000020BDE8F09F0AEB45004578202DCED1ED
:107C60000120BDE8F09F000084200020041D0020BA
:107C70002DE9F74F98B016460D464FF000084FF02B
:107C8000010B02F0D9F90446012D18BF022D05D0D1
:107C900040F694114FF0700002F0E4FFF949012022
:107CA0000860F9498968086000208DF84E000C9042
:107CB000401E0E90F54906EB460001EBC003083369
:107CC0000FAF0FCB87E80F000FA800F0C7FB0D9098
:107CD000EE48BDF84690B0F89C03ADF84C00B9F101
:107CE000000F14BF4FF0010A4FF0000A0F981490D4
:107CF000BAF1000F09D0E64890F82C0028B902F03C
:107D000039FF002808BF012700D00027E1480022E2
:107D1000159200781646012818BF032840D1DD4887
:107D2000B0F80280A8EB09001590C84538D90D9B22
:107D30006FEA0801DFF860E358180DF10C0C17AA80
:107D4000734504D940F20961702002F08BFFD34BD8
:107D5000994204DD40F20A61702002F083FFD04BAB
:107D6000994204DA40F20B61702002F07BFFCD49AA
:107D70008142DCBF00F5F700A0F1F85005DD0028D6
:107D8000BCBFA0F5F70000F1F850614601F0EEFE2F
:107D900003980F9920F07F400390081A20F07F424B
:107DA000002F18BF322604D19DF84C00002818BFC0
:107DB0000226B4F1807F08D00F98001B0002C11783
:107DC00000EB11600012012802DA042018990BE080
:107DD00047B1AF4890F82D0020B19DF84C00061C2B
:107DE00018BF022621460120B9F1000F02D0159BD1
:107DF0001E2B02DA9DF84C3013B14FF0000B401EE1
:107E00008319A4489DF84DE0007815900F98801ACA
:107E100020F07F4CACEB01000002C61700EB1660AF
:107E20000012984218DB002A18BFCDF83CC00F9E04
:107E30000597002701F0F8FF301A0002C11700EB88
:107E4000116000123E283FDA012D20D0701E0599E6
:107E500020F07F4019B32DE082B1BEF1000F04BFC6
:107E6000159803280AD027B99DF84C00002818BFA0
:107E70009B1E00228DF84C209046C7E707BB9DF85B
:107E80004C00E8B100208DF84C009B1EBEE7B4F119
:107E9000807F20D140F60D11702002F0E3FEB4F196
:107EA000807F07D0211A0902CA1701EB126109125B
:107EB000042903DD044601F0BDFF0CE000290ADDC2
:107EC0001BB00020BDE8F08F701E20F07F442046DC
:107ED00001F0B0FF5746B4F1807F24D00F98109B7B
:107EE000001B1B1B704A20F07F4023F07F4383451B
:107EF00098BFB0F5800FE3D29A42E1D3204614F048
:107F00002CFE65490D9A4B1C161AB6EB930F24BF35
:107F1000A0EB020CBCEB930F10D3B14208D2081AAD
:107F20001044461C0AE040F62D21702002F09AFE13
:107F300061452CD2891A0844401C46425448807F2F
:107F400050B3284645464FF0000BD846012805D0CF
:107F5000022002F0C7F9012002F0C4F9A94527D296
:107F6000A6EB05014FF001034FF003024FF00200B2
:107F700002F0E4F8002808BF4FF00108B9F1000F43
:107F800030D00123A6EB0901032218461EE040F67B
:107F90000C31702002F066FEC14534BF40464846B1
:107FA0005844B042CDDB4FF42461702002F05AFEF9
:107FB00010D90123A6EB09010322184602F0BEF8EE
:107FC00028B37DB1711B01230322022002F0B6F811
:107FD000E8B107E055EA090004D040F677117020B7
:107FE00002F040FE012303223146002002F0A6F8F1
:107FF00068B10125B8F1000F03D014980F908DF8E7
:108000004CB0DFF8A880BAF1000F0ED109E00220D1
:1080100002F068F9012002F065F91BB00020BDE80C
:10802000F08F1B4890F82D0000B14FB3DFF860A02F
:108030009AF82C0018B102F047FC8AF82CB007B36C
:10804000A4F1320020F07F414FF40020C8F8000076
:1080500000230322052002F071F868B34FF080443A
:10806000052002F025FA1249C1F81005C1F814459F
:108070001049E0120860064C94F82D00E8B330E097
:108080001BE01FE00805004014000020041D002034
:108090008420002016000020FF7F841E0020A107FE
:1080A00000E05EF80080841EFFFF3F0008F50140FD
:1080B00098F0014004F5014025E0DFF8B8A09AF8F7
:1080C0002C00C8B12B4C94F82D0050B14FF4002077
:1080D000C8F80000052002F005F902F05DFC84F804
:1080E0002DB0A6EB0900A0F11901002915DC40F61E
:1080F0007121702002F0B6FD00E009E002F000FC02
:108100008AF82C509BE740F23E31702002F0AAFD25
:1081100002F034FC84F82D50E3E7032201231046DB
:1081200002F00CF808B314488068C0F800B0134897
:10813000C0F800B00CAC124894E80E10C0F88013E0
:10814000C0F88423C0F88833C0F88CC310AC94E81E
:108150000E10C0F89013C0F89423C0F89833C0F8FC
:108160009CC31BB00120BDE8F08F40F67921702040
:1081700002F078FD84200020140000200805004053
:10818000041D00202DE9F043064683B00878907363
:10819000CF7A5773887A10730889144650810D4638
:1081A0000A785F4999464FEA810C4B42ACF10108CD
:1081B0005AB1C043D5F8048004F1080288423DDD7D
:1081C00040F20A61702002F04DFDEE686D686FEAC2
:1081D000000904F1080206EB0900464504D940F203
:1081E0000961702002F03EFD8945E9DC994528DBF4
:1081F0008445DCBF00F5F700A0F1F85005DD00284C
:10820000BCBFA0F5F70000F1F850214601F0AEFC2C
:10821000206820F07F417019401C2160002F08BFAA
:108220007A3003D0012F08BF48302DD101F082FCF5
:1082300020F07F40606003B0BDE8F08301469842C3
:1082400004DA40F20B61702002F00CFD8445DCBFC3
:10825000A1F1F450A0F5902005DD0028BCBF01F18C
:10826000F45000F59020214601F080FC2068002F9A
:1082700020F07F4108F10100216008BF7A3008D06A
:10828000012F08BF483004D040F2B161702002F0E5
:10829000E9FC01F04FFC20F07F416160608901AA98
:1082A000694601F063FC1F4890F82F10202923D065
:1082B0000069401D20F07F40D4E90021891A206028
:1082C000084420F07F4060604B4632462146E86813
:1082D000FFF7D2FA00281CBF03B0BDE8F083D4E951
:1082E0000010401A304426F07F4120F07F40C4E95E
:1082F000001003B0BDE8F083608906F1090720B1E2
:1083000002F038FC002808BF32370748417800984F
:10831000814284BF081A074427F07F40CCE7000061
:108320000020A107842000201600002010B5154C65
:1083300094F82F00202818BF10BD94F82E2004EBCD
:10834000820090F82010202917D0DFF83CC00CEBF9
:10835000821303EB41035B7880F82030012380F81F
:10836000233084F82B3084F82F10022000F0B0F86E
:10837000002084F82A00A07710BD40F28B317020D5
:1083800002F070FC84200020042000202DE9F05F22
:10839000DFF8B88098F82E5008EB850090F821405F
:1083A000202C08BFBDE8F09FDFF8A4B0DFF8A4A040
:1083B000AAF540790AEB8517072617F8140001285B
:1083C0000ED0042808BF02260AD005280CBF0326B9
:1083D000062805D040F6D9014FF0700002F042FCAB
:1083E000BBF1000F18BFAFF30080EFF3108072B63F
:1083F00007EB44014A7808EB850181F8212091F8C8
:108400002220A24204BF202281F82220B8B12A46AD
:108410002146012000F05CF804EB440109EBC100A7
:1084200059F8312040683146904798F82E5008EBB3
:10843000850090F82140202CBCD1BDE8F09F064873
:10844000002818BFAFF3008062B6E0E78420002068
:1084500000000000042000200000000010B50446C9
:10846000006814F07AFB02466089217A144B0844B4
:10847000411C50189A4204D940F20961702002F060
:10848000F1FB104A914204DD40F20A61702002F0D3
:10849000E9FB0D4A914204DA40F20B61702002F0D0
:1084A000E1FB0A498142DEBF00F5F700A0F1F85078
:1084B00010BD0028BCBFA0F5F70000F1F85010BDBA
:1084C000FF7F841E0020A10700E05EF80080841E6C
:1084D000DFF854C010B500230CEB821C07281ED215
:1084E000DFE800F0050505050404040001230CF88D
:1084F0001100002B08BF10BD0C4800EB820292F85F
:10850000220020280EBF82F821100CEB40004170A1
:1085100020200CEB4103587082F8221010BD4FF45C
:108520001571702002F09EFB0420002084200020A2
:108530002DE9F34F83B05C48049900EB8100019072
:1085400090F8204003982546012818BF022805D03E
:108550004FF42B614FF0700002F084FB0027202DB8
:108560004AD0514800910026807F002808BF02268B
:1085700001F05AFCDFF838A104EB44010AEBC10119
:10858000DFF828918A68C968121A091A22F07F4216
:1085900021F07F41964298BFB2F5800F01D2894504
:1085A00028D2444A009902EB811B22460BEB420180
:1085B0004C78202C16D004EB44010AEBC10CDCF8FB
:1085C0000880DCF80CC0A8EB000828F07F48ACEB72
:1085D000000121F07F41464598BFB8F5800FE4D2F5
:1085E0008945E2D3202A05D020210420009BFFF7F3
:1085F00007F90446AC4215D12F48002818BFAFF345
:10860000008001F011FC284C94F8301020290DD086
:10861000E168821C511A0902CA1701EB12610912A2
:10862000002903DD05B00020BDE8F08F202D0DD01E
:108630002A460399FFF71CFB58B3019880F8237072
:1086400084F8305005B00120BDE8F08F94F82C007C
:1086500018B102F039F984F82C7094F82D0050B15B
:1086600016494FF400200860052001F03BFE02F09F
:1086700093F984F82D70042001F034FE01F0A0FE7F
:10868000202084F830000E48806807600D4807609D
:10869000D8E72A4620210420049BFFF7B1F805B053
:1086A0000020BDE8F08F000084200020FFFF3F0085
:1086B000041D0020042000200000000008F50140F7
:1086C0001400002008050040064910B591F82F203D
:1086D000202A1CBF887710BD40F2EA31702002F0DA
:1086E000C1FA0000842000202DE9F04F5B4E814646
:1086F00085B096F82F008A4620284DD096F82F0096
:1087000006F10C0400EB4000A6F5607808EBC0070A
:1087100020208DF8000096F82E0003AA06EB8000BA
:1087200001A990F82050306902903068484401F067
:108730001DFAF86801994A4A0844A9F16501914275
:108740002FD8B968411A21F07F41B1F5800F28D2A6
:1087500020F07F406060304684F80CA090F82E0036
:10876000EA46202D1CBF3F4901EB801B3CD005EBA6
:10877000450008EBC0076068BA682146101A00027D
:10878000C21700EB126007F1080600121BD47089B3
:1087900050B3488948B127E040F67B31702002F0A1
:1087A00061FA05B00120BDE8F08F2046FFF756FEC4
:1087B00001F0C0F93168081A0002C11700EB11601E
:1087C0000012332810DA8AF80050397D207B81426C
:1087D00005D80298606005B00220BDE8F08F0BEB71
:1087E00045004578202DC2D1052001F07BFD1B4CB2
:1087F0004FF0FF30A06094F82E309DF8002020212B
:10880000202A13BF052004EB830090F82000FEF718
:10881000F7FF94F82E20134901EB821194F82F20D2
:1088200001EB42014870206848442060012084F830
:108830002B00607E012805D12069401E20F07F407A
:1088400001F096FB9DF80000202803D006484078F0
:1088500002F0D8FA05B00020BDE8F08F8420002097
:108860009B1FA107042000201400002070B5234A9C
:1088700092F82F10202939D092F82F10A2F56073AA
:1088800001EB410103EBC10C92F82E1092F82E403F
:1088900002EB810191F82010A2F1800505EB841410
:1088A000202928D001EB410503EBC5052D7D85422C
:1088B00084BF04EB41014978F2D801EB410103EB9D
:1088C000C101DCF80C0089681468081A0002C1179D
:1088D00000EB1160001207D414F03FF904F16501B8
:1088E000884224BF001B70BD002070BD40F64D3192
:1088F000702002F0B7F94FF0FF3070BD84200020E7
:10890000064810B590F82F1020291CBF007E10BD1E
:1089100040F67431702002F0A5F900008420002098
:108920000246144B10B508449A4204D940F209613A
:10893000702002F097F9104A914204DD40F20A617A
:10894000702002F08FF90D4A914204DA40F20B6177
:10895000702002F087F90A498142DEBF00F5F70076
:10896000A0F1F85010BD0028BCBFA0F5F70000F141
:10897000F85010BDFF7F841E0020A10700E05EF8C4
:108980000080841E104A0B1A02F1010CB3EB9C0FFD
:108990003CBF1846704710B5441AB4EB9C0F3CBF5F
:1089A000184610BD9A4203D2101A0844401C10BD4C
:1089B000A24204D2511A0844401C404210BD40F665
:1089C0000C31702002F04EF9FF7F841E074991F8A8
:1089D0003020824204BF4868704700EB40000449E1
:1089E00001EBC0000830FFF739BD000084200020F3
:1089F000041D00200E4910B591F82F00202812D038
:108A000091F82F00A1F5607200EB400002EBC0006E
:108A100091F82F10406801EB410152F83120BDE878
:108A200010400421104740F6BC01702002F01AF9F2
:108A300084200020F8B56D4D6D49012605F5607460
:108A4000082873D2DFE800F004679DAFCD44B4B9C5
:108A500094F82C0018B901F053FF84F82C60E08AD8
:108A600010B102F087F888B1FFF760FC84F8296044
:108A7000A168B1F1FF3F05D001230322052001F0D9
:108A80005DFB40B1607E012810D109E04FF4076121
:108A9000702002F0E7F840F67501702002F0E2F86D
:108AA0002069401E20F07F4001F062FA94F82F0008
:108AB00094F82F1000EB400005EBC000406801EB7C
:108AC000410155F8312001B00121BDE8F0401047C7
:108AD000FFF72CFC4FF0FF30A06094F829008DF8D0
:108AE00000009DF8000088B194F82F0094F82F1032
:108AF00000EB400005EBC000406801EB410155F878
:108B0000312001B00621BDE8F040104740F6860153
:108B1000702002F0A7F8FFF709FC84F8286002F043
:108B200029F820B194F82C0030B109E059E040F662
:108B30009601702002F096F801F0E2FE84F82C60B5
:108B400094F82D0058B12B494FF4002008600520FF
:108B500001F0C8FB01F020FF002084F82D0094F8FC
:108B60002F0094F82F1000EB400005EBC000406888
:108B700001EB410155F8312001B00021BDE8F04082
:108B8000104701F067FCE08A10B101F0F3FF28B153
:108B900019480078032808BF6677F8BD40F6A101A0
:108BA000702002F05FF81548066088680660F8BD1E
:108BB0000878BDE8F84002F025B9FFF7B7FB94F854
:108BC0002F0094F82F1000EB400005EBC000406828
:108BD00001EB410155F8312001B00521BDE8F0401D
:108BE000104740F6B401702002F03CF8041D00204C
:108BF0001400002008F50140160000200805004080
:108C0000034810B5407813F0A8FF80B210BD0000F3
:108C1000160000202DE9F34F8246DC488BB0006837
:108C2000DB4DC005C00D0ED0103840B20028B8BFD3
:108C300000F00F0000F1E020ACBF90F8000490F8C5
:108C4000140D40090DD00C984FF0000B007800284F
:108C500018BF012818D040F24F714FF0700002F099
:108C600001F895F82F004FF0010B202807D00C9841
:108C7000007848B140F24B71702001F0F3FF4FF4DF
:108C8000E961702001F0EEFFC24C24B1002140F2F6
:108C90005270AFF30080C0490AEB4A0001EBC000FC
:108CA0004FF00108009024B1002140F25A70AFF358
:108CB0000080B8F1000F09D095F82E604FF0000940
:108CC00085F82B90BBF1000F07D032E0B3480028A5
:108CD00018BFAFF3008062B6EEE73746012020EA06
:108CE0000706AF48402200EB871100EB861014F016
:108CF000A2F824B1002140F2CD50AFF3008005EB83
:108D0000870105EB8600096A016224B1002140F267
:108D1000D150AFF3008024B1002140F26470AFF372
:108D2000008095F82B008DF804009DF804000028C1
:108D3000B9D124B1002140F26E70AFF3008001F090
:108D400073F88046334606AA0C99FFF71BFA24B144
:108D5000002140F27570AFF30080914906A801EB45
:108D6000861717F81A10012918BF02293CD1069955
:108D7000079BA1EB08018B4A21F07F41A3EB08037D
:108D800023F07F43022971D3B1F5800F6ED29A424E
:108D90006CD34FF0010901AB05AA3146FEF7E8FE9E
:108DA00000286BD09DF814109DF8042033468A42A9
:108DB00068D00520FEF724FD07EB4A0148709DF8B6
:108DC0001400202803BF05EB860080F820A080F85F
:108DD000239007EB400018BF80F801A032465146AF
:108DE0005FF00300FFF774FB05EB860090F82300AB
:108DF0008DF804009DF8047024B1002140F27C70CD
:108E0000AFF300806848002818BFAFF30080EFF38D
:108E1000108872B624B1002140F28270AFF3008056
:108E200095F82B008DF804009DF8040000287FF4CD
:108E30003AAF24B1002140F28A70AFF300800DF107
:108E4000180E00989EE80E1000F10800B9F1000F0E
:108E500080E80E1044D024B1002140F29770AFF3A7
:108E60000080BBF1000F2CD116E0FFE732465146DF
:108E70000420FFF72DFB4FF00109B5E732465146BC
:108E80000420AFE7202919BF07EB4100407805EB2C
:108E9000860090F820008FE79FB195F82F002028DA
:108EA0000FD124B1002140F29C70AFF30080314615
:108EB0000220FFF73DFB20B90C980078F0B30128A1
:108EC0004CD024B1002140F2B970AFF30080BBF167
:108ED000000F18BF01204AD085F82B004FF0010980
:108EE00024B1002140F2CA70AFF30080B8F1000F46
:108EF00045D024B1002140F2CE70AFF30080B9F12B
:108F0000000F11D095F82E0005EB800090F821009D
:108F1000202809D024B1002140F2D570AFF30080A1
:108F20002248407801F06EFF24B1002140F2DA704F
:108F3000AFF300800DB04846BDE8F08FFFE724B1E5
:108F4000002140F2A470AFF3008095F82E20514626
:108F50000420FFF7BDFA4FF00109C1E7002C3FF4F0
:108F6000A2AE002140F2AF70AFF300809BE695F80F
:108F70002E10012020EA010185F82E10ACE70748E9
:108F8000002818BFAFF3008062B6B2E704ED00E03E
:108F90008420002000000000041D002000000000CC
:108FA00004200020FFFF3F0000000000140000200C
:108FB0002DE9F14FA5488CB00068C005C00D11D057
:108FC000103840B20028B8BF00F00F0000F1E020D8
:108FD000ACBF90F8000490F8140D400908BF4FF0A2
:108FE000010901D04FF000090C98007800284FF0DB
:108FF00000001CBF0DB0BDE8F08FDFF854A2954D06
:10900000954C4FF0000B0B9025B100214FF4CB6035
:10901000AFF3008094F82E6084F82BB04FF0000876
:1090200025B1002140F25D60AFF30080B9F1000F7F
:109030001DD13746012020EA07068848402200EB70
:10904000871100EB861013F0F6FE25B1002140F2E7
:10905000CD50AFF3008004EB870104EB8600096A72
:10906000016225B1002140F2D150AFF3008025B15B
:10907000002140F26560AFF3008000F0D5FE0746A6
:1090800033466A460C99FFF77DF825B1002140F27E
:109090006B60AFF3008094F82F00202814D0206973
:1090A0000099091A0902CA1701EB126109120BD5BE
:1090B000DDE90021891A20F07F42084420F07F403A
:1090C000CDE900204FF001084DB1002140F275605C
:1090D000AFF30080002140F27B60AFF30080009886
:1090E0000199C01BC91B20F07F4021F07F41B0F5E2
:1090F000800F05D28A4503D3B9F1000F0CD103E0EC
:10910000B9F1000F38D094E033463A4669465448E6
:10911000FEF7B2FB48EA0008B8F1000F22D0009831
:1091200013F01BFDBDF80A109DF808204D4B1144AB
:10913000491C4218984241D8494881425ADC404271
:1091400081425FDB581C9042DCBF02F5F702A2F1BE
:10915000F85205DD002ABCBFA2F5F70202F1F85271
:109160000C98C26001200B90002D62D0002140F2CB
:109170008E60AFF300805CE0BDF80A0008AA07A982
:1091800000F0F4FC94F82F0020281CD02069401D2A
:1091900020F07F40DDE90021891A014421F07F4160
:1091A000CDE9000113F0D9FCBDF80A109DF80820A4
:1091B0002C4B11444A1C8118984218D940F209617D
:1091C000702001F04FFDBDF80A0007F1090620B13B
:1091D00001F0D0FC002808BF3236234841780798B8
:1091E000814284BF081A064426F07F40D2E71C481B
:1091F000824204DD40F20A61702001F033FD1B4819
:10920000824204DA40F20B61702001F02BFD184815
:109210008842DCBF01F5F701A1F1F85105DD002915
:10922000BCBFA1F5F70101F1F8510C98C160012014
:109230000B9094F82B008DF810009DF8100000287A
:109240007FF4E2AE0B980DB0BDE8F08F04ED00E0C6
:10925000FFFF3F00000000008420002004200020C9
:109260000020A107FF7F841E1600002000E05EF8AA
:109270000080841E2DE9F14F884D8CB095F82E00AA
:10928000002009900120864C4FF00009A5F18007CD
:109290008046089024B1002140F2E970AFF30080CD
:1092A0000898002837D000BF85F82B9024B1002102
:1092B00040F2EE70AFF3008095F82EA0402228EA2D
:1092C0000A0607EB861007EB8A11834613F0B3FDFD
:1092D00024B1002140F2CD50AFF3008005EB8600B1
:1092E00005EB8A010090096A016224B1002140F275
:1092F000D150AFF3008095F82B008DF808009DF851
:10930000080078B1002C1CBF002140F2F470C1D0DD
:10931000AFF30080BEE76348002818BFAFF30080BA
:1093200062B6C1E724B100214FF4FF60AFF30080C3
:109330000C981BF81000032872D1DDF800A0CDF8BE
:1093400018A00C999AF82000884214BF4FF0000B27
:109350004FF0010B0AF1200C8646202207EB861302
:1093600003E0024603EB42004078884202D0202806
:109370000AD0F6E7202807D0864507D103EB4E0038
:1093800040788CF8000007E048460CE003EB400012
:1093900003EB42014078487024B1002140F237507D
:1093A000AFF30080404610EA0B0F18BF8AF8238005
:1093B000002852D024B1002140F2FD70AFF30080AC
:1093C000324601200C99FFF783F8069890F82300A5
:1093D0008DF808009DF808A024B1002140F608008F
:1093E000AFF300803048002818BFAFF30080EFF3E0
:1093F000108072B6089024B1002140F60D00AFF342
:10940000008095F82B008DF808009DF8080040B109
:10941000002C1CBF002140F611003FF43BAF77E762
:109420001BE0BAF1000F08D095F82F00202804D1D6
:1094300031460220FFF77CF808B324B1002140F642
:109440002500AFF3008095F82E0028EA000085F88B
:109450002E0085F82B800120099024B1002140F6D0
:109460002E00AFF30080089888B124B1002140F6A7
:109470003200AFF3008009980DB0BDE8F08F002CEA
:10948000F1D000214FF40260AFF30080E6E7054819
:10949000002818BFAFF3008062B6E6E78420002002
:1094A000000000000000000000000000202824BF91
:1094B0000020704700EB4000034B43F8301003EBF3
:1094C000C000426001207047041D002010B5202814
:1094D00011D20E4991F82E30A1F1800202EB831CCB
:1094E0001CF810303BB191F82E3002EB831212F8C9
:1094F0001020012A01D0002010BD91F82E20014635
:109500000020FEF7E5FF012010BD000084200020B0
:109510002DE9F84F804E804696F82E00A6F1800780
:1095200007EB801010F81800002868D096F82E90ED
:109530007A4D25B1002140F6C130AFF3008007EB32
:10954000891414F81800012818D0C0B204281CBFD0
:109550000528062858D02DB14FF0000140F6CD3037
:10956000AFF3008001F0A4FC25B1002140F6D1301A
:10957000AFF3008014F818000128E6D1012425B1CA
:10958000002140F6D830AFF30080002C42D00020FC
:1095900086F82B0025B1002140F6DD30AFF30080C6
:1095A00096F82EB0012020EA0B0907EB8B1107EB90
:1095B0008910402213F03FFC25B1002140F2CD502C
:1095C000AFF3008006EB8B0006EB890A006ACAF84D
:1095D000200025B1002140F2D150AFF3008096F871
:1095E0002B008DF800009DF80000D0B1002D1CBFAD
:1095F000002140F6E330C2D0AFF30080BFE740F671
:10960000B831702001F02EFB4A4641460120FEF79A
:109610005FFFA9E74248002818BFAFF3008062B699
:10962000B5E725B1002140F6E730AFF300809AF8A6
:1096300021200AF1210114464FF0200B07EB89107D
:109640000AF1220A03E0A34600EB4B035C78444591
:1096500002D0202C2BD0F6E7202C28D0A24204D117
:1096600000EB42004078087005E000EB440100EB9D
:109670004B0049784170BAF1000F11D025B100219B
:1096800040F22F50AFF300809AF80000A04207D1BB
:1096900025B1002140F23250AFF300808AF800B0CB
:1096A0005DB1002140F23750AFF3008000E025B1FA
:1096B000002140F6EB30AFF300801A48002818BFB5
:1096C000AFF30080EFF3108472B696F82B008DF89C
:1096D00000009DF8000038B1002D1CBF002140F6AD
:1096E000F1303FF44CAF87E786F82E90012086F8E2
:1096F0002B0054B1002D08BFBDE8F88F002140F6C3
:10970000FE30AFF30080BDE8F88F0548002818BF91
:10971000AFF3008062B6EDE7842000200000000077
:10972000000000000000000070B50D46064601F084
:109730000FFA0F4890F82E200024803800EB82109A
:1097400010F8141029B1611CCCB2202CF8D32020C1
:1097500070BD084804EB440140F8316000EBC100E3
:10976000214645600120FEF7B3FE204670BD000093
:1097700084200020041D00202DE9F04F83B000F06C
:1097800053FB054600F01CFE674CA068B0F1FF3F9C
:109790001CBF4FF0FF30A060A07FDFF890B1A8B9E8
:1097A000D4E90301081A0002C11700EB116000128E
:1097B0004FF40C7113F0FEF921690844281A0002D5
:1097C000C11700EB11600012C00F13D0607E28B3E8
:1097D00094F829008DF800009DF80000F0B100F029
:1097E00031FC00BF94F82A00F0B140F247417020EC
:1097F00001F038FA94F82F0094F82F1000EB400095
:109800000BEBC000406801EB41015BF831200821FF
:1098100090474FF48661702001F024FAE81C20F094
:109820007F4000F007FBDDE74FF0010A84F82AA033
:1098300094F82F00202824D094F82F80202084F83A
:109840002F0084F83000002684F8286084F829600E
:10985000374826600078022816BF03280120002020
:10986000207794F82E7004EB870999F820002028BF
:1098700031D000EB40000BEBC000817D012905D009
:1098800029E040F24A41702001F0ECF9AB4600F1CA
:109890000805408A01AA694600F068F994F82F008B
:1098A000202804D02069401D20F07F400BE068890B
:1098B0000BF1090B28B101F05DF9002808BF0BF18D
:1098C000320B2BF07F40D5E90021891A286008442B
:1098D00020F07F40686039460120FEF729FE00280D
:1098E000F9D0144800EB871010F81800022804D1B2
:1098F0003A4641460620FEF7EBFD84F82BA099F886
:109900002100202803D00C48407801F07BFA207F0A
:10991000002804BF03B0BDE8F08F00F09BFD267760
:10992000667703B0BDE8F08F84200020041D00207E
:1099300016000020042000201400002010B5324C36
:1099400082B094F82F10202908D0A168B1F1FF3F10
:1099500009D040F6E921702001F084F940F6E821B1
:10996000702001F07FF962680146284B50189A4236
:1099700004D940F20961702001F074F9244A91423F
:1099800004DD40F20A61702001F06CF9214A914235
:1099900004DA40F20B61702001F064F91E49814243
:1099A000DCBF00F5F700A0F1F85005DD0028BCBFD2
:1099B000A0F5F70000F1F85001AA694600F0D6F8CA
:1099C0009DF804000F288CBF012000200099084456
:1099D00020F07F41A16094F829008DF800009DF8E7
:1099E0000000002804BF02B010BD0123032205209F
:1099F00000F0A4FB00281CBF02B010BD40F6F1210E
:109A0000702001F02FF9000084200020FF7F841EC9
:109A10000020A10700E05EF80080841E70B51E4C97
:109A2000202184F8201084F8211084F822100020CE
:109A300084F8230084F82E0084F82F10421EA260C0
:109A40002060A07784F8280084F8290020776077C8
:109A500084F83010114984F82C0084F82D00087027
:109A600048704880A4F182011022887001F8040F28
:109A7000521EFAD10A4D012684F82A60FF20287070
:109A8000084801F0A1F9687001F0FCF9A86000F045
:109A900029FD84F8316070BD84200020160000206C
:109AA000140000208D13010070B50546012000FA56
:109AB00005F40E46002A08BF08480CD0002000F02C
:109AC000F7FCE90001F1804101F5F831C1F810051A
:109AD000C1F814650248046070BD000008F501403B
:109AE00004F5014070B504461546084613F035F8F4
:109AF0000F4A011B531CB1EB930F24BFA4EB000CC6
:109B0000BCEB930F0BD38A4203D2111B0844411CB8
:109B100005E0624507D2101A2044401C414201F181
:109B20000F00281A70BD40F60C31702001F09AF831
:109B3000FF7F841E410B48F2376251430A0C094BE8
:109B4000510202FB03020848504300F586306E3094
:109B5000400D5B4210FB03F3B2EB532F88BF491C4F
:109B600008447047F7C2FFFF6F0C0100430B48F237
:109B7000376C03FB0CF330B41B0CDFF844C05C0201
:109B800003FB0C030F4858434FEA505C04EB0C00F6
:109B900043F609541CFB04F404F5807C43F6085595
:109BA000A3EB5C2C2C440CF0FF0CB3EB542F84BFC4
:109BB0004FF0000C401C086082F800C030BC7047B9
:109BC000F7C2FFFF6F0C01002DE9F041364CD4F8CD
:109BD00004034FF4006610F4803F4FF0E0274FF08D
:109BE000000519D031480068B0B1C4F84051C7F839
:109BF00080622F480068D4F80415401A20F07F4096
:109C0000022802D3B0F5800F06D34FF48030C4F899
:109C100008030420FEF70EFFD4F8040310F4003FFD
:109C200019D024480068B0B1C4F84451C7F8806224
:109C300021480068D4F80415401A20F07F4002281B
:109C400002D3B0F5800F06D34FF40030C4F80803F8
:109C50000520FEF7EFFED4F8040310F4802F08BFB0
:109C6000BDE8F08115480068002808BFBDE8F08114
:109C7000C4F84851C7F8806211480068D4F8041548
:109C8000401A20F07F40022804D3B0F5800F38BF7F
:109C9000BDE8F0814FF48020C4F80803BDE8F0412E
:109CA0000620FEF7C7BE000000B0004040B10040F3
:109CB00040B5004044B1004044B5004048B10040C8
:109CC00048B500402DE9F041384D2878042868D087
:109CD000E81C0122017859B1012908BF6A7002D03D
:109CE0006978002958D002210170407800F0FAFA12
:109CF0002F4CD4F804034FF0000810F4002F4FF459
:109D000080774FF0E0260AD02A48006838B1032057
:109D100000F0E8FAC6F880720320FEF78BFED4F854
:109D2000040310F4802F0AD02348006838B10220C1
:109D300000F0D8FAC6F880720220FEF77BFED4F855
:109D4000040310F4003F0AD01C48006838B1012019
:109D500000F0C8FAC6F880720120FEF76BFED4F856
:109D6000040310F4803F08BFBDE8F0811448006888
:109D7000002808BFBDE8F081002000F0B3FAC6F863
:109D8000807204202870C5F80880C4F80082BDE8FD
:109D9000F0410020FEF74EBE40F26A316C2000F028
:109DA00061FFBDE8F0410720FEF744BE200000201F
:109DB000008000404C8100404881004044810040C8
:109DC00040810040012211024FF0E0230020C3F83F
:109DD000801103F5C073BFF34F8FBFF36F8FC3F8CC
:109DE00000110E4941F8042F431EC1F80433C1F895
:109DF0003C05C1F83C010A4BC3F84005C1F84001DD
:109E00001B1DC3F84005C1F844011B1DC3F84005E4
:109E1000C1F84801CA60034948707047008000409B
:109E200004800040200000200148006870470000C6
:109E300004B500402DE9F047474E0546F71E32783D
:109E4000F968012A04BFA942BDE8F0874FF04040FD
:109E5000424B186042486FF48023C0F8083300F189
:109E600004034FF00004002A61D06FF4A02CC0F866
:109E700048C3C3F84045C0F844413A4B1B684FF013
:109E8000E0294FF00108002B04BF4FF40063C9F82C
:109E900080324FF48033C0F80833C0F84833C0F83C
:109EA0004041D0F80435EB1A23F07F43022B4BD30B
:109EB000B3F5800F48D2C0F840554FF48033C0F856
:109EC000443332B1D0F804258A1A22F07F42022AA4
:109ED000F8D3C7F808803C70FFF774FF2248D0F829
:109EE000041564F30101C0F80415D0F80825022117
:109EF00061F30102C0F80825D0F81025042161F3B0
:109F00000302C0F81025C0F80C80B968C0F8001230
:109F10008015C9F88002C9F800011449C00508601D
:109F20000420FD60707086F80080BDE8F0876FF453
:109F3000802CC0F848C3C0F84045C0F84041C3F881
:109F40004045C0F8444198E70021C0F840154FF45F
:109F5000FA716C2000F086FE2300002008F5014015
:109F600000B0004048B100400080004004F50140CE
:109F700070B52C4CE268824214BF01210021DFF849
:109F8000A8C09CF80050022D02D0002937D002E072
:109F9000002908BF70BD617881B3244B4FF0804128
:109FA00019608B132249C1F80833C1F848330023E4
:109FB000C1F84031D1F80435C31A23F07F43022B96
:109FC00027D3B3F5800F24D2C1F840054FF4803376
:109FD000C1F844333DB100BFD1F80435D31A23F0A2
:109FE0007F43022BF8D3134B02214A071A60E0602B
:109FF00004208CF801008CF8001070BD04E040F2E1
:10A0000002216C2000F02EFE40F206216C2000F0B0
:10A0100029FE0020C1F8400540F212216C2000F01A
:10A0200021FE0000200000202300002008F5014050
:10A0300000B0004004F501400148C06870470000CE
:10A04000200000202DE9F04136496FF48020C1F84E
:10A050000803354D0B1D0022287868B16FF4A02C41
:10A06000C1F848C3C3F84025C1F844212F4B1B68F1
:10A070004FF0010C9BB90CE06FF4802CC1F848C381
:10A08000C1F84025C1F84021C3F84025C1F844215A
:10A09000ECE74FF0E0244FF40063C4F8803202286C
:10A0A00004D040F21E216C2000F0DCFDD1F8040544
:10A0B0001F4CC01C20F07F40E3681E4E98420CD01D
:10A0C000D1F80475DF1B27F07F47042F05D3B7F5C0
:10A0D000800F02D2FFF7AEFE1FE0D1F80405181A78
:10A0E00020F07F40022815D3B0F5800F12D212491C
:10A0F0004FF080400860C4F808C02270C6F804C061
:10A10000C6F80CC04000091F08600420687085F87C
:10A1100000C002E0C4F808C02270A068C6F80002BF
:10A12000BDE8F08100B000402300002048B10040AD
:10A13000200000200080004008F501402DE9F04794
:10A14000DFF890C1002601279CF800409CF801C070
:10A150004FF4A07507287BD2DFE800F00404040464
:10A160006C6C6C00DFF87081D8F80C90B9F1807FCE
:10A1700004BF98F80180B8F1000F02D0022C05D07E
:10A180002CE040F251216C2000F06CFDACF1040891
:10A1900008F0FF0805EB880505F1804808F5304810
:10A1A0000025012C02D0022C0BD014E0BCF1040FCE
:10A1B00024BFD8F80090B9F1000F08BF4FF0004558
:10A1C00009E0BCF1040F24BFD8F80090B9F1000FEA
:10A1D00008BF45F0804515F0804FE1D13F4C00F1BC
:10A1E000100C07FA0CFCC4F808C304EB8005C2B1DC
:10A1F0004FF0400808EB800808F0FF08A044C8F8BA
:10A20000007004EB8000D0F84005A1EB000020F0C6
:10A210007F40824298BFB0F5800F28BFC5F84065E7
:10A2200050D2C5F84015012B08BFC4F804C3012063
:10A23000BDE8F08734B1844504D14FF41D716C2022
:10A2400000F010FDA0F1040C0CF0FF04012B00E065
:10A250003BE00CBF4FF001084FF00008032C04D383
:10A2600040F24D116C2000F0FDFCDFF874C004F1E9
:10A27000100307FA03F3CCF80833CCF8483305EBA6
:10A2800084044CF80460001FC0B20CEB80006AB17B
:10A29000DCF804450C1B24F07F44A24298BFB4F5BF
:10A2A000800F24BF0021C0F840150BD2C0F8401524
:10A2B000B8F1000F18BFCCF80433CCF844330120B8
:10A2C000BDE8F0870020BDE8F08740F279216C20DE
:10A2D00000F0C8FC23000020200000200080004087
:10A2E00000B000402DE9F84300264FF4A0774FF06E
:10A2F0000108072851D2DFE800F00404040419190A
:10A30000190000F1100108FA01F22649C1F80823EA
:10A3100001EB80030022C3F8402507EB80028E503A
:10A32000214951F820000090BDE8F8831F4D011F1E
:10A33000CCB2297879B16A7882420CD11C4A4FF0AC
:10A3400040401060012908BFFFF73CFD2E701949FD
:10A350004FF08070C86004F1100008FA00F1164850
:10A36000C0F80813C0F84813A1000144D1F8401503
:10A37000D0F80425891A21F07F41022907D300EB88
:10A3800084020021C2F8401507EB840146500B48B7
:10A3900050F824000090BDE8F88340F2F1216C20D1
:10A3A00000F060FC0080004040810040230000205D
:10A3B00008F501402000002000B0004040B10040FE
:10A3C00020496FF48020C1F808031F480A1D037854
:10A3D00000205BB16FF4A023C1F84833C2F84005F8
:10A3E000C1F844011949096899B90CE06FF4802358
:10A3F000C1F84833C1F84005C1F84001C2F8400532
:10A40000C1F84401EEE74FF0E0224FF40061C2F8DA
:10A4100080120F494FF0FF32C1F80823C1F8400500
:10A42000C1F840010A1DC2F84005C1F84401121DDF
:10A43000C2F84005C1F84801121DC2F84005C1F834
:10A440004C01704700B000402300002048B100409C
:10A4500000800040084890F902000028B8BF70470B
:10A4600000F01F01012202FA01F14009800000F111
:10A47000E020C0F8001270472000002010B5072827
:10A480000DD2DFE800F004040404060606000649C5
:10A4900002E0001F0549C0B201EB800010BD40F290
:10A4A0009D216C2000F0DEFB4081004040B1004067
:10A4B00010B507280DD2DFE800F0040404040606F6
:10A4C0000600064902E0001F0549C0B201EB80000A
:10A4D00010BD40F29D216C2000F0C4FB4081004083
:10A4E00040B1004010B51C48002404210470C01E77
:10A4F00001708905C160FFF765FC4FF0E0234FF460
:10A5000000624FF0010CC3F88021BFF34F8FBFF3FF
:10A510006F8FC3F880221148C0F804C0C0F808C08B
:10A52000D0F804150029FBD1491EC0F80813C0F863
:10A530004813C0F84045C0F840410949C1F84045BA
:10A54000C0F84441091DC1F84045C0F84841C3F86E
:10A550000021C0F800C010BD2300002000B0004062
:10A5600004B000402DE9F041164C607A002827D055
:10A570004FF480718D05284612F040FB80464FF461
:10A580008271284612F03AFB00260746B8F1000F08
:10A5900009D00120C5F80803207920B12671E069AF
:10A5A00008B18047E66137B1C5F804610220C5F8FB
:10A5B000080300F08BFA4046BDE8F04100F05AB8BD
:10A5C000BDE8F0813000002010B512F0C1FB30B9B9
:10A5D00012F0DFFB18B912F012FC002802D0024979
:10A5E0000220086010BD0000340C004070B500F07F
:10A5F00087F900F0BFFA094C4FF0804530B1FFF702
:10A60000E3FF012028610420A07204E00320A0726F
:10A610000120C5F804030020E07170BD3000002067
:10A6200070B5134CA079F0B1012803D0E179401E38
:10A63000814218DA00F09EFA054600F083FBA1790A
:10A64000012902D9E179491CE1710DB1616900E08C
:10A650002169411A022902DA11F1020F07DC0DB15A
:10A66000606100E02061BDE87040FFF7BFBF70BDD2
:10A67000300000202DE9F04706464FF080454FF4AA
:10A680008671284612F0BAFA80464FF4887128463F
:10A6900012F0B4FA274C8246277804F1080012F031
:10A6A00021FB10B14FF4D57116E04FF0010946B10E
:10A6B000A07A032805D10420A072FFF785FFC5F812
:10A6C00010900026B8F1000F18D0C5F80C61A07AE0
:10A6D000042804D04FF4DE716D2000F0C3FA12F0AC
:10A6E00037FB28B912F055FB10B912F088FB08B1FE
:10A6F000114806600220A07200F0E6F8BAF1000FDF
:10A7000008D0C5F81061A07A022801D1FFF788FFB0
:10A71000C5F814903FB12670A07A022801D1FFF746
:10A7200065FF00F0D1F8BDE8F0470248083012F0AC
:10A73000F0BA000030000020340C00402DE9F04752
:10A740005C4C4FF000080646C4F8188043788278C5
:10A750000078E07263710127A271BD0784F8078059
:10A76000052824D2DFE800F00F03051F2100A761B0
:10A7700009E000F0C5F80121284612F044FA00284B
:10A78000F9D00220A06112F06AFAB0B100F00CFA20
:10A79000217E01F0030188420FD1B07950B102202F
:10A7A000C5F804036AE04448ECE74448EAE740F2AD
:10A7B0002D3149E000F0CCF960E0EF604FF4827A8F
:10A7C000C5F80481A069C5F8180512F0ADFA40B9C2
:10A7D00012F0B4FA28B912F0C8FA10B912F0D9FA86
:10A7E00038B14FF080513648D1F84412C1F34231AC
:10A7F000016012F099FA40B912F0A0FA28B912F0EB
:10A80000B4FA10B912F0C5FA10B12D481030076033
:10A81000AF600220C5F80403B07978BBD5F8040313
:10A8200010F0020F0ED0DFF89C90D9F80010C94349
:10A8300041F30017D9F8001041F01001C9F80010D9
:10A840007F1C07E040F2EE216D2000F00BFA00BF04
:10A8500000F02EFB5146284612F0D0F90028F7D020
:10A8600000F076F92FB9D9F8001021F01001C9F8DD
:10A8700000100220C5F80803C5F80481A07970B162
:10A88000307860B900F076F9064600F05BFA6FF0B8
:10A89000004216B1C4E9042001E0C4E90402012128
:10A8A000284612F0B0F908B100F05EF984F80A8089
:10A8B000BDE8F08730000020010002000100030025
:10A8C0003C05004010ED00E010B5EFF3108472B6C7
:10A8D0000A48417829B14178491E4170417829B12F
:10A8E00008E040F20D116D2000F0BCF9807808B945
:10A8F00000F04EF9002C00D162B610BD30000020EF
:10A9000010B5EFF3108472B606484178491C4170C7
:10A910004078012801D112F08DF9002C00D162B6E7
:10A9200010BD000030000020054810B5C17821B1ED
:10A9300000210171C170FFF7C7FF002010BD0000AA
:10A940003000002070B50C4CE17861B90125E5704C
:10A95000E061FFF7D5FF00F00DF930B1E06910B10B
:10A9600080470020E061002070BD4FF080402571DD
:10A97000C0F80453F7E7000030000020EFF3108028
:10A9800072B604498A78521C8A70002800D162B6D7
:10A99000704700003000002010B5EFF3108472B64D
:10A9A0000A48817829B18178491E8170417829B19E
:10A9B00008E040F225116D2000F054F9807808B9C4
:10A9C00000F0E6F8002C00D162B610BD3000002087
:10A9D0002DE9F04104006FF015003CD021780429E6
:10A9E00039D80029617838D0002934D1A1780029DC
:10A9F00031D1002012F0CDF8002012F0BDF84FF058
:10AA000080484FF0FF31C8F808130026C8F80061ED
:10AA1000C8F80461C8F80C61C8F81061144F7E7062
:10AA2000A088B88112F0FDF8012508B1FD707D7095
:10AA30000121404612F0E7F808B100F095F82046F1
:10AA4000FFF77CFE7D72002012F096F84FF0E021B7
:10AA50003046C1F80051BDE8F0810029FBD0202923
:10AA6000F9D8A1782129F6D80129C2D1F3E700004D
:10AA7000300000200148808970470000300000202D
:10AA800010B50D4812F02EF90B49083948B10120D4
:10AA900008704FF0E021C1F80002BDE81040FFF758
:10AAA0002FBF887A022801D1FFF7A0FDBDE8104032
:10AAB000014812F02EB90000380000200248807AC8
:10AAC000002800D00120704730000020F8B51F4D4D
:10AAD000E87A00280FD1287E00F0030012F0AFF8CA
:10AAE000002808D0EFF3108172B6FFF7E7FF18B126
:10AAF000002900D162B6F8BD0126AE7201B962B676
:10AB000018204FF08044C4F80803A6614FF4207069
:10AB1000ADF80000BDF80000411EADF80010F9D2FC
:10AB20000027C4F80C71C4F810710848083012F0FE
:10AB3000ECF82F70FFF75AFD6661687900F07F002E
:10AB4000C4F838051820C4F80403F8BD300000200C
:10AB500010B5044C207E00F0030012F070F80028BD
:10AB6000F8D010BD30000020014901200870704766
:10AB7000200400204FF08040D0F8000118B90348AD
:10AB80000078002800D00120704700002004002039
:10AB90004FF08040012141600021C0F800110148C0
:10ABA00001707047200400200248006800F0030094
:10ABB000704700001C04004010B531B1012907D0D6
:10ABC00040F2023105A000F021F8D0F8140401E0B1
:10ABD000D0F8080400F0010010BD00006E72665F3E
:10ABE000636C6F636B2E6800BFF34F8F054801687D
:10ABF000054A01F4E06111430160BFF34F8F00BFCC
:10AC0000FDE700000CED00E00400FA0572B6034A0F
:10AC1000526802B19047FFF7E7FF000050000020A4
:10AC2000064810B50021016001210160084612F0BC
:10AC30002DF8BDE81040012012F01BB8FC1F0040A9
:10AC4000074810B501214160891EC0F808130C2087
:10AC500012F01CF8BDE810400C2012F00AB80000F9
:10AC600000C000400EB572B60F4A5568D5B100223B
:10AC700003466E460A2403E0B0FBF4F0521CD2B245
:10AC80000028F9D1B05409E0B3FBF4F004FB103014
:10AC9000B3FBF4F3521ED2B23030B054002AF3D1D9
:10ACA0003046A847FFF7A0FF5000002070B5174CB2
:10ACB00006460D46607810B14FF0FF3070BD06B902
:10ACC000134E62602570FFF7ABFFFFF7B9FF304608
:10ACD000FFF77EFE0600F1D1FEF7A0FEFFF7F6FEBD
:10ACE00011F0A2FE284611F0C4FF0120002D09DB5F
:10ACF00005F01F0100FA01F16A09920002F1E02259
:10AD0000C2F800116070304670BD00005000002095
:10AD1000AE5C0200014840787047000050000020FF
:10AD2000074890F90000002809DB00F01F0201210C
:10AD300091404009800000F1E020C0F80012704707
:10AD4000500000202DE9F04101264FF0E0223103B0
:10AD50004FF000084046C2F88011BFF34F8FBFF399
:10AD60006F8F164CC4F800010C2011F0AEFF144D8B
:10AD70002868C04340F30017286840F0100028609E
:10AD8000C4F8046326607F1C02E000BF00F090F866
:10AD9000D4F800010028F9D01FB9286820F010006D
:10ADA0002860084805686660C4F80863C4F8008134
:10ADB0000C2011F08AFF2846BDE8F08100C0004059
:10ADC00010ED00E008C5004010B5024605200C4912
:10ADD00004E000BF01EBC0031B7933B1401EC0B2D9
:10ADE000F8D248216920FFF73DFF41F8302001EB00
:10ADF000C00100224A718A7101220A7110BD00004F
:10AE0000B820002010B5052801D3582106E00A49D2
:10AE100001EBC0000179012903D059216920FFF716
:10AE200021FF41798279491CC9B28A4200D041711F
:10AE3000BDE81040FFF774BFB820002070B50525AD
:10AE40000E4E0F4C16E0217806EBC1000279012A64
:10AE500008D1427983799A4204D04279827156F8B6
:10AE6000310080472078401CC0B22070052801D3F3
:10AE7000002020706D1EEDB2E5D270BDB82000201C
:10AE80002104002000B511F04FFF40B911F056FF2A
:10AE900028B911F06AFF10B911F07BFF08B1024820
:10AEA00000BD024800BD00000C05004000E7014065
:10AEB00010B511F06EFF30B3EFF31080C8B1002170
:10AEC00072B6124802680368C2F3001243F010031E
:10AED00003604FF0E023D3F80042D3F804321C4360
:10AEE00000D040BF20BF00BF00BF00BF00BF12B1F5
:10AEF00005E00121E4E7026822F010020260002967
:10AF000000D062B610BD20BF10BD000010ED00E003
:10AF100070B50E4C6078002817D1207800250128E4
:10AF200006D102202070206910B120698047256178
:10AF30002078032809D125702069002805D0606891
:10AF40004069804720698047256170BD5800002016
:10AF500010B5084C2078022802D02078032802D1AE
:10AF60006068806880470020A0706070BDE8104075
:10AF7000FFF7CEBF5800002002480078002800D01C
:10AF8000012070475800002038B50446052804D336
:10AF900040F237116820FFF765FEFFF7B9FF104D4B
:10AFA000012068702878022816D16868C168204698
:10AFB00088470C4901EB4402527882420DD3A878AD
:10AFC00001280AD011F814008DF800008DF8014016
:10AFD000686801686846884738BD0120F4E70000CA
:10AFE000580000204825002005490A78022A04D08C
:10AFF0000A78032A01D00020704749680969084788
:10B000005800002010B558B108490A78022A02D029
:10B010000A78032A09D149684968BDE81040084701
:10B0200040F24D116820FFF71DFE10BD58000020B2
:10B0300005480178022904D00178032901D00020B5
:10B040007047406880690047580000200360020094
:10B050001F6002000D60020019600200076002001C
:10B0600001600200FF5F0200256002001360020021
:10B07000F95F0200F15F0200F55F0200EB5F020082
:10B0800001480068006800476C0000200148006823
:10B09000006900476C000020014A1268926810475E
:10B0A0006C00002001480068C06800476C00002068
:10B0B000014A1268526810476C0000200149096873
:10B0C000096A08476C0000200148007870470000BA
:10B0D000220400201FB5174C207A022800D202203B
:10B0E0008DF80100E079032800D203208DF80000DC
:10B0F000A079ADF804006079ADF8020068460EF062
:10B1000035FE08B1842110E0E068029002A80EF03C
:10B1100043FE08B1882108E007480068039003A8AF
:10B1200015F070FE002803D08C21032000F050F9A8
:10B130001FBD0000E0200020FC4401007CB5044657
:10B1400000680D4600F1030020F0030020604FF07E
:10B1500000000090019008788DF8010048788DF883
:10B16000020088788DF80300C8788DF804002879EB
:10B1700016008DF8050001D0002000E02068694627
:10B1800000F058FB216808442060A97841B16B8A1F
:10B19000EA7806B1002000F031FE21680844206002
:10B1A0001948C17879B1297C69B1007908B1FF22C9
:10B1B00000E025220EB1002000E0206800F0B4FE7F
:10B1C000216808442060287968B12068C01C20F0FC
:10B1D000030020602A7D297906B100200FF022FBB0
:10B1E000216808442060687D00280CD02068C01CBD
:10B1F00020F003002060697D06B1002000F0C4FE4D
:10B200002168084420607CBD7000002010B528B182
:10B210001422044911F00FFE002010BD6FF015003C
:10B2200010BD00001845010070B510B16FF02C0082
:10B2300070BD2A4C607810B14FF0FF3070BD09B37B
:10B240006FF01500002AF9D0254B0C29F6D2DFE863
:10B2500001F006070A0D111420281A2B2E33EDE7F2
:10B26000107818702CE01078587029E01068C3F836
:10B27000050025E01068D86022E01178DA78914264
:10B28000DCD399701CE011789A789142D6D8D970A5
:10B2900016E0E17811B111780229CFD31078187433
:10B2A0000EE0108858820BE01078187108E01178D1
:10B2B0000229C3D3197503E011780829BED859753E
:10B2C00001220749002011F0AFFEB0F5803F02DBFC
:10B2D0006FF00B0070BD0121A17070BD70000020E7
:10B2E000E020002070B50C46050019D0C4B100F074
:10B2F00047F9C0B12846FFF767FD0C4D00220C4905
:10B300002870204611F090FE16F0EEFC00212878FF
:10B310000FF086F9FFF7DEFE01206870002070BD97
:10B320006FF0150070BD4FF0FF3070BD7000002051
:10B33000E020002030B587B005000CD0FFF7EAFC14
:10B340004FF0FF3420B1FFF795FBB0F5FA7F05D938
:10B35000204607B030BD6FF01500FAE7164C1748CD
:10B36000A56000F043FA00206070A070E0702071CA
:10B3700001461822684611F0D8FD18221049684687
:10B3800011F059FD182269460E4811F054FDEFF3F3
:10B39000108472B60C486FF00C0100F08DFE0B4863
:10B3A00000F05AFF18B19A21032000F011F804B9F7
:10B3B00062B60020CDE7000070000020D5400100FB
:10B3C00000450100E020002000C00040AD45010024
:10B3D0000EB572B6154A9568D5B1002203466E4681
:10B3E0000A2403E0B0FBF4F0521CD2B20028F9D1D9
:10B3F000B05409E0B3FBF4F004FB1030B3FBF4F3FA
:10B40000521ED2B23030B054002AF3D13046A84791
:10B41000BFF34F8F06480168064A01F4E06111430B
:10B420000160BFF34F8F00BFFDE7000070000020F8
:10B430000CED00E00400FA05064810B5817840786C
:10B44000014302D04FF0FF3010BD0FF019F900207A
:10B4500010BD000070000020064810B581784078CB
:10B46000014302D04FF0FF3010BD0EF035FD00203B
:10B4700010BD000070000020064810B581784078AB
:10B48000014302D04FF0FF3010BD15F0D7FE002071
:10B4900010BD000070000020064810B5817840788B
:10B4A000014302D04FF0FF3010BD0FF00DF9002026
:10B4B00010BD000070000020074810B58178427868
:10B4C000114302D04FF0FF3010BD0121C1700FF0C9
:10B4D000E9F8002010BD000070000020064810B5FB
:10B4E00081784078014302D04FF0FF3010BD0FF05B
:10B4F00005F9002010BD00007000002001000000D0
:10B5000001010100001B1B03020000004C1D000094
:10B5100003001F00020000000EE7C56667183CAC80
:10B52000B3D2CC81A3DCF1C0C0360222054A10B5EB
:10B53000526812B1BDE81040104783210420FFF784
:10B5400047FF0000F8200020054A10B5126812B12C
:10B55000BDE8104010477D210420FFF739FF0000AF
:10B56000F8200020054A10B5926812B1BDE81040DD
:10B57000104789210420FFF72BFF0000F82000204E
:10B580000548016829B1416819B1806808B10120F6
:10B590007047002070470000F820002002490DC8C5
:10B5A00081E80D0000207047F8200020F8B5124C0B
:10B5B0000026256811E00098022802D003280CD14B
:10B5C00006E0206810B10020266005E028210CE08C
:10B5D000206868B101202660A847684600F00EFE8A
:10B5E0000028E8D0052805D035210420FFF7F0FE1B
:10B5F0002D21FAE7F8BD00007C0000207CB51F4C2F
:10B600000546207840B1A278611C2846921C11F0B2
:10B6100012FC0020207021E0194803F0CDF800282A
:10B620001DD0174C2078142804D10A213E2000F0A8
:10B6300029F818B120780A2805D009E010492846D1
:10B6400012F027F80AE005213E2000F01BF838B17F
:10B650000B49284611F0BBFD002800D001207CBD1D
:10B66000A088ADF8000001A9684612F087F900280B
:10B67000F5D09B210820FFF7ABFE00000C22002034
:10B680000421002070B50C46054600F04BF8002858
:10B6900002D03E2D01D0012070BD122C06D10648EB
:10B6A0000178022902D040780028F5D02046BDE874
:10B6B000704000F053B80000230400200149487096
:10B6C000704700002304002070B50A7882703AB3F6
:10B6D000012A25D81323037000230AE001EB430459
:10B6E00000EB4305A678EE706488240A5B1C2C717D
:10B6F000DBB29342F2D300230BE000BF01EB430522
:10B7000000EB43042E796671AD882D0A5B1CA57190
:10B71000DBB29342F2D3012101EB8200C0B270BDD3
:10B72000002070BD01210C4A40280CD2202803D8EB
:10B73000401E8140106802E021388140506801427B
:10B7400007D100207047FF2803D04038814090681F
:10B75000F5E7012070470000800000200121401E15
:10B7600081400448C068014201D001207047002098
:10B77000704700008000002001490068C8607047E1
:10B780008000002004490268406842F48C220A606C
:10B79000024A10434860704780000020F8074002CA
:10B7A00001490068886070478000002005484FF01C
:10B7B000FF310160C90C4160002181601F21C1601F
:10B7C000704700008000002010B5FFF7EFFF002059
:10B7D000FFF774FF15F00BFD04460348006800B145
:10B7E0008047204610BD00009000002001490860FD
:10B7F000704700009000002002210180418000215C
:10B8000001710E2141714CF2E751C1800149816003
:10B81000002070476667183C10B5052804D34FF424
:10B82000D6711720FFF7D4FD0149085C10BD000058
:10B8300010230020F8B504468A7848780244FF2A8D
:10B8400002D940F25F111DE00A78824202D940F22B
:10B85000631117E00094C4B100264B7891F802C040
:10B860004A790CEB0300C5B2AA4200D91546C87844
:10B87000A84200D90546E71C27F00307A74206D0D7
:10B8800040F279111720FFF7A3FD0126E5E7154FD8
:10B890003B7087F801C0B8700879F8703A7131468A
:10B8A000684600F00FF900218C460098C01C20F07B
:10B8B000030000905EB907EB8103D861002004E02B
:10B8C000DA6942F820C0401CC0B2A842F8D3009800
:10B8D000491C00EB8500C9B200900529E5D3001B87
:10B8E000F8BD00001023002070B5044612F09CFD46
:10B8F00008B1102070BD257800F020F902460C48F0
:10B90000618800EB85000EE0C36953F8213043B134
:10B910004A1C6280A180C06950F82100A06000200C
:10B9200070BD491C89B29142EED36180052070BD83
:10B93000102300202DE9F041074611B1002038B94D
:10B9400001E00120FBE7012902D0002038B901E025
:10B950000120FBE7022902D0002038B901E00120D4
:10B96000FBE7032902D0002060B901E00120FBE7DA
:10B97000042907D0002000281FD0002412480129E4
:10B9800002D002E00120F6E7047800234FF6FF76AC
:10B9900000EB810C10F801E008E01819DCF81C50ED
:10B9A00080B255F8205025B15B1C9BB29E45F4D85F
:10B9B00030463880B04202D10020BDE8F081BDE8B9
:10B9C000F04100F035B80000102300202DE9F041CF
:10B9D0000746A0F57F400C4643F20206FF3820D010
:10B9E000052C02D30720BDE8F081384600F05AF854
:10B9F000050016D00C48294650F8242038469047B8
:10BA00000A48002100EB8406F06940F82710204620
:10BA100000F08AF802462946B06812F03DFB00208B
:10BA2000E1E73046DFE70000784B010010230020FB
:10BA30002DE9F04190460E46074612F079FB48B1D9
:10BA4000164800EB8604E06950F8270028B14FF44F
:10BA50009D7115E040F2391112E0A06800281AD05B
:10BA6000304600F061F80146A06812F0C7FA050000
:10BA700010D0E069052E40F8275004D340F245115C
:10BA80001720FFF7A5FC06484246294650F8263005
:10BA9000384698472846BDE8F08100001023002072
:10BAA000644B010070B50C46054612F041FB0028BE
:10BAB00005D0034800EB8400C06950F8250070BD34
:10BAC000102300202DE9F843164F88460546002430
:10BAD0002868C01C20F003002860204600F024F8ED
:10BAE000395D4143B8F1000F01D0002000E0286823
:10BAF000009018B100261EB1002002E00126FAE7EE
:10BB0000684612F0A8FA1EB907EB8401009A8A6011
:10BB10002968641C0844E4B22860052CD8D3BDE829
:10BB2000F883000010230020034931F810004FF67D
:10BB3000FC71C01C084070478C4B0100084B187802
:10BB400059780844C1B29878814200D30846DA781F
:10BB5000904200D210461979884200D208467047B8
:10BB6000102300204571020045710200457102005A
:10BB7000457102004571020095910200118E02008C
:10BB8000FF830200CFAC0200D9AC0200E001280222
:10BB90000C017000600000002DE9FF4F264C80462C
:10BBA00081B020689A46934658B1027A424503D93B
:10BBB000416851F8280040B143F2020005B0BDE8E9
:10BBC000F08FA5211820FFF703FC1946029812F008
:10BBD000D1FA87B258460E9912F0C3FA86B2B81954
:10BBE000001D85B22068A1462946006812F006FAB9
:10BBF00004001FD0658026800E98251D00903146D8
:10BC00005A460123284612F052F920883946284422
:10BC10000123029ACDF800A012F049F920884119B9
:10BC2000284612F077F9D9F800004168002041F861
:10BC30002840C3E70420C1E79400002070B5144CED
:10BC400023688BB1197A814212D95A6852F82010B0
:10BC500071B1002542F820504A88186812F01CFA89
:10BC6000216800200A7A0CE0C8211820FFF7B0FBF9
:10BC700043F2020070BD4B6853F8203033B9401CCA
:10BC8000C0B28242F7D8086812F0FBF9002070BDFC
:10BC9000940000202DE9F0410D46040090464FF03D
:10BCA000000609D00027E01C20F00300A04205D0C8
:10BCB00086211820FFF78CFB0127F4E7CDB1114650
:10BCC000002012F0C8F90C3000EB85068FB90A4F3E
:10BCD00004F10C00AA003C602572606000EB850056
:10BCE00020600021606811F020F94146386812F0A8
:10BCF000B2F93046BDE8F0819400002070B5084DDF
:10BD0000286800280AD0002404E02046FFF796FFA8
:10BD1000641CE4B22868007AA042F6D870BD000026
:10BD200094000020094910B502460968002049B175
:10BD30000B7A934205D9496851F82210002900D0A6
:10BD4000081D10BDEE211820FFF742FB94000020D3
:10BD50000A4910B502460968002059B10B7A93428E
:10BD600007D9496851F82210002902D031F8040B94
:10BD7000084410BDFC211820FFF72AFB9400002086
:10BD80002DE9F0411C4E456804460022A1B1012076
:10BD9000607070888308002004EB400104EB80068B
:10BDA0000A830B8400FB035171602118401C0A7543
:10BDB0000428F1D3BDE8F0816270002004EB40015B
:10BDC0000A830A8404EB80014A602118401C0A752A
:10BDD0000428F3D3708812F04BFA0746708812F0EB
:10BDE0004EFA656020842918A1606784E560A0840C
:10BDF0002161E784DEE70000980000202DE9F0478C
:10BE000080B100261144CFB2DFF89C80C11C002411
:10BE100021F0030188F80070814205D04E210920ED
:10BE2000FFF7D6FA0126EDE71F2B04D84FF6FF7176
:10BE300001EA830109E05900FF2B0BD903F1FF024E
:10BE4000B2EB430F00D2114689B2C91C21F00305A1
:10BE500036B109E07C22B2EB430FF5D37C21F3E746
:10BE6000C8F80400A8F8025007EB870104EBC102F0
:10BE700000214FF001090FE05EB9D8F8044001EB52
:10BE8000810300EB020C04F8339004EBC303C3F806
:10BE900004C0491C2A44C9B2B942EDD3D21D22F0D4
:10BEA0000700BDE8F08700009800002070B5114839
:10BEB0000024214602780CE0456801EB810315F867
:10BEC000333023B101EB810105EBC10403E0491CD0
:10BED000C9B29142F0D344B10025A570012120469A
:10BEE000FFF74EFF2570204670BDA9210920FFF7FE
:10BEF0006FFA000098000020044810B540888408BC
:10BF000012F0BDF9844200D3204610BD98000020F5
:10BF10000148407870470000A000002001484068B8
:10BF200070470000A00000202DE9F8430C460746AA
:10BF300016461C2110460D46224612F01AF880467D
:10BF400057B13846414632462B46009411F0AFFFB8
:10BF500003484760047046704046BDE8F88300001F
:10BF6000A00000200248427801784068FFF7DCBF5B
:10BF7000A0000020034B00211878C0EBC0025868D5
:10BF800010F0D3BFA800002010B50C4610B100225D
:10BF900012B10FE00122FBE7C11C21F00301814235
:10BFA00003D020214120FFF713FA044948600C70A8
:10BFB000FFF7E0FFC4EBC40010BD0000A8000020A4
:10BFC000094910B507480860084B112003EBC0046D
:10BFD0000022C4F81025C4F81425401CC0B214284F
:10BFE000F4D310BD0000FEFF08F5014000F0014051
:10BFF00070B520240021012320FA01F2D20720D0BD
:10C000004AB2002A10DB00BF4FEA52164FEA8606FA
:10C0100002F01F0506F1E02603FA05F5C6F8805187
:10C02000BFF34F8FBFF36F8F0BDB02F01F054FEA9B
:10C0300052124FEA820202F1E02203FA05F5C2F839
:10C04000805201F10101A142D6D370BD70B542000A
:10C050004FF0000101D5144A1160C0F38032C0F3E3
:10C06000C0339A4203D069211B20FFF7B1F910F4C5
:10C07000404F14D00D4A01205060831EC2F808338F
:10C080000B4A9060C2F80012C2F80833094C2160D4
:10C09000251D28609060C2F8083321602860BDE843
:10C0A0007040FFF78DBF000004E5014000E0004054
:10C0B00000F0004000F5004070B50A4C0D462060CD
:10C0C000FFF7C4FF2068FFF793FF00F083F8FFF746
:10C0D00077FF12F09EF9284600F0B6F8BDE87040F0
:10C0E00000F0CEB8B00000202DE9F14F364C82B000
:10C0F000D4F804B50126354810F0F4FDDFF8CC90F3
:10C1000020B9002609F1010010F003FE4FF48075FC
:10C110004FF000082F1D01216160C4F80081C4F8B0
:10C1200004810298C4F804052160DFF8A4A01CE093
:10C13000DAF80000C00618D50E2012F056F9EFF319
:10C140001080009072B603212046C4F804132946DB
:10C1500012F058F930B93946204612F053F908B9AF
:10C16000FEF7A6FE009800B962B62946204612F0F6
:10C1700049F928B93946204612F044F90028D7D0A9
:10C180003946204612F03EF90028C4D136B1C4F831
:10C1900004B509F1010010F0A5FD12E009F101005C
:10C1A00010F0A0FD0028ADD10320C4F80803C4F8A6
:10C1B0000481C4F800810E2012F017F9034810F032
:10C1C000A8FD0020BDE8FE8F00E00040250400200F
:10C1D00010ED00E010B5084810F097FD08B12521DA
:10C1E00006E00548401C10F090FD002803D02921EE
:10C1F0001D20FFF7EDF810BD2504002070B5114992
:10C200000A68EAB100231D4601244A68521C4A60AC
:10C210000C2A00D34D600E7904FA06F20E6816421D
:10C220000BD0EFF3108372B60C6894430C6003B923
:10C2300062B649680160002070BD5B1C0C2BE4D322
:10C24000052070BDB400002002480021016041605B
:10C2500070470000B400002010B5084C617809B1A7
:10C260000F2010BDFEF7B0FD2070FF2801D0002088
:10C2700010BD76211F20FFF7ABF80000BC000020A6
:10C280000149002048707047BC00002005498A8C95
:10C29000824218BF7047002081F822004FF6FF70DD
:10C2A00088847047182500200648074A818C5288E8
:10C2B000914205D190F8220000281CBF0020704751
:10C2C00001207047182500200804002001494880FB
:10C2D00070470000080400200848094A818C5288F1
:10C2E000914209D14FF6FF71818410F8221F19B1D4
:10C2F00000210170012070470020704718250020A0
:10C3000008040020074901F1220091F82220012AA7
:10C3100004BF00207047012202700348008888840F
:10C320001046704718250020080400200749084BD4
:10C330008A8C5B889A4206D191F82220002A1EBF7F
:10C340000160012070470020704700001825002080
:10C350000804002009498A8CA2F57F43FF3B03D0E3
:10C36000002101600846704791F822200349012A04
:10C370001ABF01600120002070470000182500202E
:10C38000014908807047000008040020054900208A
:10C3900081F822004FF6FF708884034908804880A6
:10C3A00070470000182500200804002005490020DF
:10C3B00081F822004FF6FF70888403490880488086
:10C3C0007047000018250020080400200A4A10B118
:10C3D000012807D00EE0507860B1D2F80200086062
:10C3E000D08804E0107828B190680860908988802F
:10C3F000012070470020704727040020094A0123CC
:10C4000040B1012818BF7047137008689060888891
:10C410009081704753700868C2F802008888D08005
:10C420007047000027040020064910B1012803D0FE
:10C4300006E0487810B903E0087808B10120704799
:10C44000002070472704002001494874704700000D
:10C45000F21C00200148C07870470000D80000207E
:10C460000148007970470000D800002038B4124914
:10C470004A7CF2B10A7C8DF800209DF80020C2B100
:10C4800000224FF0220CA1F5A9730C7C8DF800401E
:10C490009DF8004054B10A74427080F800C0D3F88F
:10C4A0005A41D3F85E5144608560EEE738BC012004
:10C4B000704738BC00207047F21C002070B5084C53
:10C4C0000546207818B1BD212720FEF781FF0549D8
:10C4D000002048740121044812F0CCFBE56270BDD5
:10C4E000D8000020F21C0020D01C002001490120AF
:10C4F00088717047D80000202DE9F84FF34DDDF822
:10C5000028C02C78002C66D1002A1CBF002BBCF15F
:10C51000000F60D0C5F81CC0C5E90E014FF0000047
:10C52000C5E90523A8716871E870A8702871DFF863
:10C53000A093A881E881D9F8040000F178070446A7
:10C540000FF07EF90EF0F6FA94F96E000FF00CFA87
:10C5500004F118000FF002FD20690FF0F5FC97F8C8
:10C5600023000FF05DFD99F8000041F64C5A0028B9
:10C5700036D00420FEF708FDE068504528BF96201D
:10C5800003D201200FF0AAFC4D200FF041F8D9F89A
:10C59000040090F88401002818BF0FF029F894F8DF
:10C5A0006B1001200EF008FE002808BFBDE8F88FD0
:10C5B000C8480EF0B5FF2088FFF7CAFB2863208823
:10C5C000FFF7B0FB686394F877008DF800009DF8E2
:10C5D000000060BB1BE04FF48A712720FEF7F8FED5
:10C5E0000320FEF7D1FCE068504528BF962003D217
:10C5F00001200FF073FC4D200FF00AF894F86A1038
:10C6000000200EF0D9FD0028D2D1BDE8F88F206FB0
:10C6100068B1788EB988884209D1B4F874100122C3
:10C620000844788694F87600216FFDF73DFA07F10B
:10C630006801A94891E80E1000F584764FF00108D2
:10C6400086E80E10B96FC0F82111F96FC0F82511F6
:10C65000D9F8040000F1780190F885C0BCF1240FEE
:10C660001CBF897B24290CD04FF008024FF0020335
:10C67000BCF11F0F18BFBCF1200F2DD0222951D0C3
:10C680007FE099F80010002990F86A1013D090F814
:10C69000A601002879D0082918BF04296ED00828DF
:10C6A00018BF04286AD0012918BF012856D000BF3E
:10C6B0004FF0020169E090F82A01002865D00829AE
:10C6C00018BF04295AD0082818BF042856D00129B9
:10C6D00018BF012842D0EBE7222923D099F8001097
:10C6E000E9B390F86A1090F8C00110F0040F18BF79
:10C6F00010460CD0082918BF04293FD0082818BFBD
:10C7000004283BD0012918BF012827D0D0E710F01A
:10C71000010F18BF4046EDD110F0020F18BF1846A8
:10C72000E8D132E099F80010C9B190F86A1090F899
:10C73000C0C190F863000CEA000010F0040F18BFAD
:10C74000104610D0082918BF042917D0082818BF90
:10C75000042813D0012918BF0128A9D100E010E056
:10C760004FF0010111E010F0010F18BF4046E9D170
:10C7700010F0020F18BF1846E4D106E04FF0080190
:10C7800003E090F86A100429F8D0208F11F00C0F04
:10C7900018BF4FF4296011F0F5FFA18E814238BF18
:10C7A0000846287294F86B10E08F97F813B0A68FA4
:10C7B000082936D011F0E6FFBBF1000F04BF001DC1
:10C7C00080B2864228BF064602F0EEFB10B1232E4F
:10C7D00098BF2326F2B26A72F97C002914BF0420A4
:10C7E00000201044E87199F800303C48EBB1E9B3FF
:10C7F00080F81880D7E91813C0E9041394F86B0087
:10C80000012808BF00233FD0022808BF01233BD0E6
:10C81000042808BF032337D0082808BF022333D0D9
:10C820001DE0042111F0AEFFC6E7B97C41B380F8EA
:10C830001880D7E91612C0E9041294F86A0001289A
:10C8400008BF002310D0022808BF01230CD0042801
:10C8500008BF032308D0082808BF022304D040F2F1
:10C86000AD310620FEF7B4FDFB2200E012E01B49CB
:10C8700000200EF0B5F9E068504528BF0EF014FA1C
:10C88000012000F02BFC08E0144901200EF0A8F96B
:10C890000EF00AFA012000F0C7FB114800680328D7
:10C8A00018BF0B280CD00F4D284615F02FFBB88869
:10C8B00068802088288097F823002871BDE8F88FC9
:10C8C00040F2C1112720FEF783FD0000D8000020B0
:10C8D00010010020BC620100A01B0020A81C002049
:10C8E00050150040F21C00202DE9F0470600464894
:10C8F000464D406800F17804686A90F8019018BFCE
:10C90000012E03D1696B10F0F0FB68706878002786
:10C910004FF0010850B101282FD0022855D003282C
:10C9200067D040F215412720FEF752FD012E12D0AC
:10C93000A86A002844D06989CA1C696A10F07BFA89
:10C94000A86A686201224946686B11F0FBF8022E62
:10C9500008BFBDE8F087D4E91802411C42F100008D
:10C96000C4E91810207A012801D1277201E084F867
:10C970000880BDE8F04702F03DBA012E11D0A86A48
:10C98000F0B16989CA1C696A10F055FAA86A686230
:10C9900000224946686B11F0D5F8022E08BFBDE8A9
:10C9A000F087D4E91802411C42F10000C4E91810D4
:10C9B000207A01280CBF277284F80880BDE8F08730
:10C9C00040F25B412720FEF703FD012E06D0686B85
:10C9D00011F00FFB022E08BFBDE8F087D4E9180262
:10C9E000411C42F10000C4E91810207A0128BED190
:10C9F000BBE7012E08BFBDE8F087686B11F0F9FABC
:10CA0000BDE8F04702F0F6B910010020D800002080
:10CA10000248C089C0F3802070470000D800002081
:10CA20000448007800281CBF0C20704700200249F1
:10CA300048747047D8000020F21C002038B51A480E
:10CA4000017800F1380449B12178007849B1022811
:10CA50000ED040F2DD112720FEF7BAFC00F09EFA5E
:10CA60000BE0012809D040F2D9112720FEF7B0FCD5
:10CA70006068D0F818010EF05BFD606890F87710E0
:10CA80008DF800109DF80010002918BF38BD016F07
:10CA9000002908BF38BD90F87600BDE83840002274
:10CAA0001146FDF701B80000D8000020012984BF1D
:10CAB0000120704770B51B4C0546A16988470028C6
:10CAC0002CD0607950BB04F138000178002908BFF0
:10CAD000012D01D021B31DBB1348027812F0100FB5
